{
	"contracts/Voting.sol/votedapp.sol": {
		"Voting": {
			"abi": [
				{
					"inputs": [
						{
							"internalType": "string",
							"name": "_name",
							"type": "string"
						}
					],
					"name": "addOption",
					"outputs": [],
					"stateMutability": "nonpayable",
					"type": "function"
				},
				{
					"inputs": [
						{
							"internalType": "uint256",
							"name": "_index",
							"type": "uint256"
						}
					],
					"name": "getOption",
					"outputs": [
						{
							"internalType": "string",
							"name": "",
							"type": "string"
						},
						{
							"internalType": "uint256",
							"name": "",
							"type": "uint256"
						}
					],
					"stateMutability": "view",
					"type": "function"
				},
				{
					"inputs": [],
					"name": "getOptionCount",
					"outputs": [
						{
							"internalType": "uint256",
							"name": "",
							"type": "uint256"
						}
					],
					"stateMutability": "view",
					"type": "function"
				},
				{
					"inputs": [
						{
							"internalType": "uint256",
							"name": "",
							"type": "uint256"
						}
					],
					"name": "options",
					"outputs": [
						{
							"internalType": "string",
							"name": "name",
							"type": "string"
						},
						{
							"internalType": "uint256",
							"name": "voteCount",
							"type": "uint256"
						}
					],
					"stateMutability": "view",
					"type": "function"
				},
				{
					"inputs": [
						{
							"internalType": "uint256",
							"name": "_optionIndex",
							"type": "uint256"
						}
					],
					"name": "vote",
					"outputs": [],
					"stateMutability": "nonpayable",
					"type": "function"
				},
				{
					"inputs": [
						{
							"internalType": "address",
							"name": "",
							"type": "address"
						}
					],
					"name": "voters",
					"outputs": [
						{
							"internalType": "bool",
							"name": "",
							"type": "bool"
						}
					],
					"stateMutability": "view",
					"type": "function"
				}
			],
			"devdoc": {
				"kind": "dev",
				"methods": {},
				"version": 1
			},
			"evm": {
				"assembly": "    /* \"contracts/Voting.sol/votedapp.sol\":58:1058  contract Voting {... */\n  mstore(0x40, 0x80)\n  callvalue\n  dup1\n  iszero\n  tag_1\n  jumpi\n  0x00\n  dup1\n  revert\ntag_1:\n  pop\n  dataSize(sub_0)\n  dup1\n  dataOffset(sub_0)\n  0x00\n  codecopy\n  0x00\n  return\nstop\n\nsub_0: assembly {\n        /* \"contracts/Voting.sol/votedapp.sol\":58:1058  contract Voting {... */\n      mstore(0x40, 0x80)\n      callvalue\n      dup1\n      iszero\n      tag_1\n      jumpi\n      0x00\n      dup1\n      revert\n    tag_1:\n      pop\n      jumpi(tag_2, lt(calldatasize, 0x04))\n      shr(0xe0, calldataload(0x00))\n      dup1\n      0x0121b93f\n      eq\n      tag_3\n      jumpi\n      dup1\n      0x1ce5e9a6\n      eq\n      tag_4\n      jumpi\n      dup1\n      0x409e2205\n      eq\n      tag_5\n      jumpi\n      dup1\n      0xa3ec138d\n      eq\n      tag_6\n      jumpi\n      dup1\n      0xa6bd5427\n      eq\n      tag_7\n      jumpi\n      dup1\n      0xedc550dc\n      eq\n      tag_8\n      jumpi\n    tag_2:\n      0x00\n      dup1\n      revert\n        /* \"contracts/Voting.sol/votedapp.sol\":424:686  function vote(uint256 _optionIndex) public {... */\n    tag_3:\n      tag_9\n      0x04\n      dup1\n      calldatasize\n      sub\n      dup2\n      add\n      swap1\n      tag_10\n      swap2\n      swap1\n      tag_11\n      jump\t// in\n    tag_10:\n      tag_12\n      jump\t// in\n    tag_9:\n      stop\n        /* \"contracts/Voting.sol/votedapp.sol\":800:1055  function getOption(uint256 _index) public view returns (string memory, uint256) {... */\n    tag_4:\n      tag_13\n      0x04\n      dup1\n      calldatasize\n      sub\n      dup2\n      add\n      swap1\n      tag_14\n      swap2\n      swap1\n      tag_11\n      jump\t// in\n    tag_14:\n      tag_15\n      jump\t// in\n    tag_13:\n      mload(0x40)\n      tag_16\n      swap3\n      swap2\n      swap1\n      tag_17\n      jump\t// in\n    tag_16:\n      mload(0x40)\n      dup1\n      swap2\n      sub\n      swap1\n      return\n        /* \"contracts/Voting.sol/votedapp.sol\":165:188  Option[] public options */\n    tag_5:\n      tag_18\n      0x04\n      dup1\n      calldatasize\n      sub\n      dup2\n      add\n      swap1\n      tag_19\n      swap2\n      swap1\n      tag_11\n      jump\t// in\n    tag_19:\n      tag_20\n      jump\t// in\n    tag_18:\n      mload(0x40)\n      tag_21\n      swap3\n      swap2\n      swap1\n      tag_17\n      jump\t// in\n    tag_21:\n      mload(0x40)\n      dup1\n      swap2\n      sub\n      swap1\n      return\n        /* \"contracts/Voting.sol/votedapp.sol\":199:237  mapping(address => bool) public voters */\n    tag_6:\n      tag_22\n      0x04\n      dup1\n      calldatasize\n      sub\n      dup2\n      add\n      swap1\n      tag_23\n      swap2\n      swap1\n      tag_24\n      jump\t// in\n    tag_23:\n      tag_25\n      jump\t// in\n    tag_22:\n      mload(0x40)\n      tag_26\n      swap2\n      swap1\n      tag_27\n      jump\t// in\n    tag_26:\n      mload(0x40)\n      dup1\n      swap2\n      sub\n      swap1\n      return\n        /* \"contracts/Voting.sol/votedapp.sol\":694:790  function getOptionCount() public view returns (uint256) {... */\n    tag_7:\n      tag_28\n      tag_29\n      jump\t// in\n    tag_28:\n      mload(0x40)\n      tag_30\n      swap2\n      swap1\n      tag_31\n      jump\t// in\n    tag_30:\n      mload(0x40)\n      dup1\n      swap2\n      sub\n      swap1\n      return\n        /* \"contracts/Voting.sol/votedapp.sol\":246:416  function addOption(string memory _name) public {... */\n    tag_8:\n      tag_32\n      0x04\n      dup1\n      calldatasize\n      sub\n      dup2\n      add\n      swap1\n      tag_33\n      swap2\n      swap1\n      tag_34\n      jump\t// in\n    tag_33:\n      tag_35\n      jump\t// in\n    tag_32:\n      stop\n        /* \"contracts/Voting.sol/votedapp.sol\":424:686  function vote(uint256 _optionIndex) public {... */\n    tag_12:\n        /* \"contracts/Voting.sol/votedapp.sol\":501:508  options */\n      0x00\n        /* \"contracts/Voting.sol/votedapp.sol\":501:515  options.length */\n      dup1\n      sload\n      swap1\n      pop\n        /* \"contracts/Voting.sol/votedapp.sol\":486:498  _optionIndex */\n      dup2\n        /* \"contracts/Voting.sol/votedapp.sol\":486:515  _optionIndex < options.length */\n      lt\n        /* \"contracts/Voting.sol/votedapp.sol\":478:540  require(_optionIndex < options.length, \"Invalid option index\") */\n      tag_37\n      jumpi\n      mload(0x40)\n      0x08c379a000000000000000000000000000000000000000000000000000000000\n      dup2\n      mstore\n      0x04\n      add\n      tag_38\n      swap1\n      tag_39\n      jump\t// in\n    tag_38:\n      mload(0x40)\n      dup1\n      swap2\n      sub\n      swap1\n      revert\n    tag_37:\n        /* \"contracts/Voting.sol/votedapp.sol\":560:566  voters */\n      0x01\n        /* \"contracts/Voting.sol/votedapp.sol\":560:578  voters[msg.sender] */\n      0x00\n        /* \"contracts/Voting.sol/votedapp.sol\":567:577  msg.sender */\n      caller\n        /* \"contracts/Voting.sol/votedapp.sol\":560:578  voters[msg.sender] */\n      0xffffffffffffffffffffffffffffffffffffffff\n      and\n      0xffffffffffffffffffffffffffffffffffffffff\n      and\n      dup2\n      mstore\n      0x20\n      add\n      swap1\n      dup2\n      mstore\n      0x20\n      add\n      0x00\n      keccak256\n      0x00\n      swap1\n      sload\n      swap1\n      0x0100\n      exp\n      swap1\n      div\n      0xff\n      and\n        /* \"contracts/Voting.sol/votedapp.sol\":559:578  !voters[msg.sender] */\n      iszero\n        /* \"contracts/Voting.sol/votedapp.sol\":551:596  require(!voters[msg.sender], \"Already voted\") */\n      tag_40\n      jumpi\n      mload(0x40)\n      0x08c379a000000000000000000000000000000000000000000000000000000000\n      dup2\n      mstore\n      0x04\n      add\n      tag_41\n      swap1\n      tag_42\n      jump\t// in\n    tag_41:\n      mload(0x40)\n      dup1\n      swap2\n      sub\n      swap1\n      revert\n    tag_40:\n        /* \"contracts/Voting.sol/votedapp.sol\":609:616  options */\n      0x00\n        /* \"contracts/Voting.sol/votedapp.sol\":617:629  _optionIndex */\n      dup2\n        /* \"contracts/Voting.sol/votedapp.sol\":609:630  options[_optionIndex] */\n      dup2\n      sload\n      dup2\n      lt\n      tag_43\n      jumpi\n      tag_44\n      tag_45\n      jump\t// in\n    tag_44:\n    tag_43:\n      swap1\n      0x00\n      mstore\n      keccak256(0x00, 0x20)\n      swap1\n      0x02\n      mul\n      add\n        /* \"contracts/Voting.sol/votedapp.sol\":609:640  options[_optionIndex].voteCount */\n      0x01\n      add\n      0x00\n        /* \"contracts/Voting.sol/votedapp.sol\":609:642  options[_optionIndex].voteCount++ */\n      dup2\n      sload\n      dup1\n      swap3\n      swap2\n      swap1\n      tag_47\n      swap1\n      tag_48\n      jump\t// in\n    tag_47:\n      swap2\n      swap1\n      pop\n      sstore\n      pop\n        /* \"contracts/Voting.sol/votedapp.sol\":674:678  true */\n      0x01\n        /* \"contracts/Voting.sol/votedapp.sol\":653:659  voters */\n      dup1\n        /* \"contracts/Voting.sol/votedapp.sol\":653:671  voters[msg.sender] */\n      0x00\n        /* \"contracts/Voting.sol/votedapp.sol\":660:670  msg.sender */\n      caller\n        /* \"contracts/Voting.sol/votedapp.sol\":653:671  voters[msg.sender] */\n      0xffffffffffffffffffffffffffffffffffffffff\n      and\n      0xffffffffffffffffffffffffffffffffffffffff\n      and\n      dup2\n      mstore\n      0x20\n      add\n      swap1\n      dup2\n      mstore\n      0x20\n      add\n      0x00\n      keccak256\n      0x00\n        /* \"contracts/Voting.sol/votedapp.sol\":653:678  voters[msg.sender] = true */\n      0x0100\n      exp\n      dup2\n      sload\n      dup2\n      0xff\n      mul\n      not\n      and\n      swap1\n      dup4\n      iszero\n      iszero\n      mul\n      or\n      swap1\n      sstore\n      pop\n        /* \"contracts/Voting.sol/votedapp.sol\":424:686  function vote(uint256 _optionIndex) public {... */\n      pop\n      jump\t// out\n        /* \"contracts/Voting.sol/votedapp.sol\":800:1055  function getOption(uint256 _index) public view returns (string memory, uint256) {... */\n    tag_15:\n        /* \"contracts/Voting.sol/votedapp.sol\":856:869  string memory */\n      0x60\n        /* \"contracts/Voting.sol/votedapp.sol\":871:878  uint256 */\n      0x00\n        /* \"contracts/Voting.sol/votedapp.sol\":908:915  options */\n      dup1\n        /* \"contracts/Voting.sol/votedapp.sol\":908:922  options.length */\n      dup1\n      sload\n      swap1\n      pop\n        /* \"contracts/Voting.sol/votedapp.sol\":899:905  _index */\n      dup4\n        /* \"contracts/Voting.sol/votedapp.sol\":899:922  _index < options.length */\n      lt\n        /* \"contracts/Voting.sol/votedapp.sol\":891:947  require(_index < options.length, \"Invalid option index\") */\n      tag_50\n      jumpi\n      mload(0x40)\n      0x08c379a000000000000000000000000000000000000000000000000000000000\n      dup2\n      mstore\n      0x04\n      add\n      tag_51\n      swap1\n      tag_39\n      jump\t// in\n    tag_51:\n      mload(0x40)\n      dup1\n      swap2\n      sub\n      swap1\n      revert\n    tag_50:\n        /* \"contracts/Voting.sol/votedapp.sol\":960:980  Option memory option */\n      0x00\n        /* \"contracts/Voting.sol/votedapp.sol\":983:990  options */\n      dup1\n        /* \"contracts/Voting.sol/votedapp.sol\":991:997  _index */\n      dup5\n        /* \"contracts/Voting.sol/votedapp.sol\":983:998  options[_index] */\n      dup2\n      sload\n      dup2\n      lt\n      tag_52\n      jumpi\n      tag_53\n      tag_45\n      jump\t// in\n    tag_53:\n    tag_52:\n      swap1\n      0x00\n      mstore\n      keccak256(0x00, 0x20)\n      swap1\n      0x02\n      mul\n      add\n        /* \"contracts/Voting.sol/votedapp.sol\":960:998  Option memory option = options[_index] */\n      mload(0x40)\n      dup1\n      0x40\n      add\n      0x40\n      mstore\n      swap1\n      dup2\n      0x00\n      dup3\n      add\n      dup1\n      sload\n      tag_55\n      swap1\n      tag_56\n      jump\t// in\n    tag_55:\n      dup1\n      0x1f\n      add\n      0x20\n      dup1\n      swap2\n      div\n      mul\n      0x20\n      add\n      mload(0x40)\n      swap1\n      dup2\n      add\n      0x40\n      mstore\n      dup1\n      swap3\n      swap2\n      swap1\n      dup2\n      dup2\n      mstore\n      0x20\n      add\n      dup3\n      dup1\n      sload\n      tag_57\n      swap1\n      tag_56\n      jump\t// in\n    tag_57:\n      dup1\n      iszero\n      tag_58\n      jumpi\n      dup1\n      0x1f\n      lt\n      tag_59\n      jumpi\n      0x0100\n      dup1\n      dup4\n      sload\n      div\n      mul\n      dup4\n      mstore\n      swap2\n      0x20\n      add\n      swap2\n      jump(tag_58)\n    tag_59:\n      dup3\n      add\n      swap2\n      swap1\n      0x00\n      mstore\n      keccak256(0x00, 0x20)\n      swap1\n    tag_60:\n      dup2\n      sload\n      dup2\n      mstore\n      swap1\n      0x01\n      add\n      swap1\n      0x20\n      add\n      dup1\n      dup4\n      gt\n      tag_60\n      jumpi\n      dup3\n      swap1\n      sub\n      0x1f\n      and\n      dup3\n      add\n      swap2\n    tag_58:\n      pop\n      pop\n      pop\n      pop\n      pop\n      dup2\n      mstore\n      0x20\n      add\n      0x01\n      dup3\n      add\n      sload\n      dup2\n      mstore\n      pop\n      pop\n      swap1\n      pop\n        /* \"contracts/Voting.sol/votedapp.sol\":1017:1023  option */\n      dup1\n        /* \"contracts/Voting.sol/votedapp.sol\":1017:1028  option.name */\n      0x00\n      add\n      mload\n        /* \"contracts/Voting.sol/votedapp.sol\":1030:1036  option */\n      dup2\n        /* \"contracts/Voting.sol/votedapp.sol\":1030:1046  option.voteCount */\n      0x20\n      add\n      mload\n        /* \"contracts/Voting.sol/votedapp.sol\":1009:1047  return (option.name, option.voteCount) */\n      swap3\n      pop\n      swap3\n      pop\n      pop\n        /* \"contracts/Voting.sol/votedapp.sol\":800:1055  function getOption(uint256 _index) public view returns (string memory, uint256) {... */\n      swap2\n      pop\n      swap2\n      jump\t// out\n        /* \"contracts/Voting.sol/votedapp.sol\":165:188  Option[] public options */\n    tag_20:\n      0x00\n      dup2\n      dup2\n      sload\n      dup2\n      lt\n      tag_61\n      jumpi\n      0x00\n      dup1\n      revert\n    tag_61:\n      swap1\n      0x00\n      mstore\n      keccak256(0x00, 0x20)\n      swap1\n      0x02\n      mul\n      add\n      0x00\n      swap2\n      pop\n      swap1\n      pop\n      dup1\n      0x00\n      add\n      dup1\n      sload\n      tag_63\n      swap1\n      tag_56\n      jump\t// in\n    tag_63:\n      dup1\n      0x1f\n      add\n      0x20\n      dup1\n      swap2\n      div\n      mul\n      0x20\n      add\n      mload(0x40)\n      swap1\n      dup2\n      add\n      0x40\n      mstore\n      dup1\n      swap3\n      swap2\n      swap1\n      dup2\n      dup2\n      mstore\n      0x20\n      add\n      dup3\n      dup1\n      sload\n      tag_64\n      swap1\n      tag_56\n      jump\t// in\n    tag_64:\n      dup1\n      iszero\n      tag_65\n      jumpi\n      dup1\n      0x1f\n      lt\n      tag_66\n      jumpi\n      0x0100\n      dup1\n      dup4\n      sload\n      div\n      mul\n      dup4\n      mstore\n      swap2\n      0x20\n      add\n      swap2\n      jump(tag_65)\n    tag_66:\n      dup3\n      add\n      swap2\n      swap1\n      0x00\n      mstore\n      keccak256(0x00, 0x20)\n      swap1\n    tag_67:\n      dup2\n      sload\n      dup2\n      mstore\n      swap1\n      0x01\n      add\n      swap1\n      0x20\n      add\n      dup1\n      dup4\n      gt\n      tag_67\n      jumpi\n      dup3\n      swap1\n      sub\n      0x1f\n      and\n      dup3\n      add\n      swap2\n    tag_65:\n      pop\n      pop\n      pop\n      pop\n      pop\n      swap1\n      dup1\n      0x01\n      add\n      sload\n      swap1\n      pop\n      dup3\n      jump\t// out\n        /* \"contracts/Voting.sol/votedapp.sol\":199:237  mapping(address => bool) public voters */\n    tag_25:\n      mstore(0x20, 0x01)\n      dup1\n      0x00\n      mstore\n      keccak256(0x00, 0x40)\n      0x00\n      swap2\n      pop\n      sload\n      swap1\n      0x0100\n      exp\n      swap1\n      div\n      0xff\n      and\n      dup2\n      jump\t// out\n        /* \"contracts/Voting.sol/votedapp.sol\":694:790  function getOptionCount() public view returns (uint256) {... */\n    tag_29:\n        /* \"contracts/Voting.sol/votedapp.sol\":741:748  uint256 */\n      0x00\n        /* \"contracts/Voting.sol/votedapp.sol\":768:775  options */\n      dup1\n        /* \"contracts/Voting.sol/votedapp.sol\":768:782  options.length */\n      dup1\n      sload\n      swap1\n      pop\n        /* \"contracts/Voting.sol/votedapp.sol\":761:782  return options.length */\n      swap1\n      pop\n        /* \"contracts/Voting.sol/votedapp.sol\":694:790  function getOptionCount() public view returns (uint256) {... */\n      swap1\n      jump\t// out\n        /* \"contracts/Voting.sol/votedapp.sol\":246:416  function addOption(string memory _name) public {... */\n    tag_35:\n        /* \"contracts/Voting.sol/votedapp.sol\":334:335  0 */\n      0x00\n        /* \"contracts/Voting.sol/votedapp.sol\":318:323  _name */\n      dup2\n        /* \"contracts/Voting.sol/votedapp.sol\":312:331  bytes(_name).length */\n      mload\n        /* \"contracts/Voting.sol/votedapp.sol\":312:335  bytes(_name).length > 0 */\n      gt\n        /* \"contracts/Voting.sol/votedapp.sol\":304:367  require(bytes(_name).length > 0, \"Option name cannot be empty\") */\n      tag_70\n      jumpi\n      mload(0x40)\n      0x08c379a000000000000000000000000000000000000000000000000000000000\n      dup2\n      mstore\n      0x04\n      add\n      tag_71\n      swap1\n      tag_72\n      jump\t// in\n    tag_71:\n      mload(0x40)\n      dup1\n      swap2\n      sub\n      swap1\n      revert\n    tag_70:\n        /* \"contracts/Voting.sol/votedapp.sol\":378:385  options */\n      0x00\n        /* \"contracts/Voting.sol/votedapp.sol\":391:407  Option(_name, 0) */\n      mload(0x40)\n      dup1\n      0x40\n      add\n      0x40\n      mstore\n      dup1\n        /* \"contracts/Voting.sol/votedapp.sol\":398:403  _name */\n      dup4\n        /* \"contracts/Voting.sol/votedapp.sol\":391:407  Option(_name, 0) */\n      dup2\n      mstore\n      0x20\n      add\n        /* \"contracts/Voting.sol/votedapp.sol\":405:406  0 */\n      0x00\n        /* \"contracts/Voting.sol/votedapp.sol\":391:407  Option(_name, 0) */\n      dup2\n      mstore\n      pop\n        /* \"contracts/Voting.sol/votedapp.sol\":378:408  options.push(Option(_name, 0)) */\n      swap1\n      dup1\n      0x01\n      dup2\n      sload\n      add\n      dup1\n      dup3\n      sstore\n      dup1\n      swap2\n      pop\n      pop\n      0x01\n      swap1\n      sub\n      swap1\n      0x00\n      mstore\n      keccak256(0x00, 0x20)\n      swap1\n      0x02\n      mul\n      add\n      0x00\n      swap1\n      swap2\n      swap1\n      swap2\n      swap1\n      swap2\n      pop\n      0x00\n      dup3\n      add\n      mload\n      dup2\n      0x00\n      add\n      swap1\n      dup2\n      tag_74\n      swap2\n      swap1\n      tag_75\n      jump\t// in\n    tag_74:\n      pop\n      0x20\n      dup3\n      add\n      mload\n      dup2\n      0x01\n      add\n      sstore\n      pop\n      pop\n        /* \"contracts/Voting.sol/votedapp.sol\":246:416  function addOption(string memory _name) public {... */\n      pop\n      jump\t// out\n        /* \"#utility.yul\":7:82   */\n    tag_76:\n        /* \"#utility.yul\":40:46   */\n      0x00\n        /* \"#utility.yul\":73:75   */\n      0x40\n        /* \"#utility.yul\":67:76   */\n      mload\n        /* \"#utility.yul\":57:76   */\n      swap1\n      pop\n        /* \"#utility.yul\":7:82   */\n      swap1\n      jump\t// out\n        /* \"#utility.yul\":88:205   */\n    tag_77:\n        /* \"#utility.yul\":197:198   */\n      0x00\n        /* \"#utility.yul\":194:195   */\n      dup1\n        /* \"#utility.yul\":187:199   */\n      revert\n        /* \"#utility.yul\":211:328   */\n    tag_78:\n        /* \"#utility.yul\":320:321   */\n      0x00\n        /* \"#utility.yul\":317:318   */\n      dup1\n        /* \"#utility.yul\":310:322   */\n      revert\n        /* \"#utility.yul\":334:411   */\n    tag_79:\n        /* \"#utility.yul\":371:378   */\n      0x00\n        /* \"#utility.yul\":400:405   */\n      dup2\n        /* \"#utility.yul\":389:405   */\n      swap1\n      pop\n        /* \"#utility.yul\":334:411   */\n      swap2\n      swap1\n      pop\n      jump\t// out\n        /* \"#utility.yul\":417:539   */\n    tag_80:\n        /* \"#utility.yul\":490:514   */\n      tag_132\n        /* \"#utility.yul\":508:513   */\n      dup2\n        /* \"#utility.yul\":490:514   */\n      tag_79\n      jump\t// in\n    tag_132:\n        /* \"#utility.yul\":483:488   */\n      dup2\n        /* \"#utility.yul\":480:515   */\n      eq\n        /* \"#utility.yul\":470:533   */\n      tag_133\n      jumpi\n        /* \"#utility.yul\":529:530   */\n      0x00\n        /* \"#utility.yul\":526:527   */\n      dup1\n        /* \"#utility.yul\":519:531   */\n      revert\n        /* \"#utility.yul\":470:533   */\n    tag_133:\n        /* \"#utility.yul\":417:539   */\n      pop\n      jump\t// out\n        /* \"#utility.yul\":545:684   */\n    tag_81:\n        /* \"#utility.yul\":591:596   */\n      0x00\n        /* \"#utility.yul\":629:635   */\n      dup2\n        /* \"#utility.yul\":616:636   */\n      calldataload\n        /* \"#utility.yul\":607:636   */\n      swap1\n      pop\n        /* \"#utility.yul\":645:678   */\n      tag_135\n        /* \"#utility.yul\":672:677   */\n      dup2\n        /* \"#utility.yul\":645:678   */\n      tag_80\n      jump\t// in\n    tag_135:\n        /* \"#utility.yul\":545:684   */\n      swap3\n      swap2\n      pop\n      pop\n      jump\t// out\n        /* \"#utility.yul\":690:1019   */\n    tag_11:\n        /* \"#utility.yul\":749:755   */\n      0x00\n        /* \"#utility.yul\":798:800   */\n      0x20\n        /* \"#utility.yul\":786:795   */\n      dup3\n        /* \"#utility.yul\":777:784   */\n      dup5\n        /* \"#utility.yul\":773:796   */\n      sub\n        /* \"#utility.yul\":769:801   */\n      slt\n        /* \"#utility.yul\":766:885   */\n      iszero\n      tag_137\n      jumpi\n        /* \"#utility.yul\":804:883   */\n      tag_138\n      tag_77\n      jump\t// in\n    tag_138:\n        /* \"#utility.yul\":766:885   */\n    tag_137:\n        /* \"#utility.yul\":924:925   */\n      0x00\n        /* \"#utility.yul\":949:1002   */\n      tag_139\n        /* \"#utility.yul\":994:1001   */\n      dup5\n        /* \"#utility.yul\":985:991   */\n      dup3\n        /* \"#utility.yul\":974:983   */\n      dup6\n        /* \"#utility.yul\":970:992   */\n      add\n        /* \"#utility.yul\":949:1002   */\n      tag_81\n      jump\t// in\n    tag_139:\n        /* \"#utility.yul\":939:1002   */\n      swap2\n      pop\n        /* \"#utility.yul\":895:1012   */\n      pop\n        /* \"#utility.yul\":690:1019   */\n      swap3\n      swap2\n      pop\n      pop\n      jump\t// out\n        /* \"#utility.yul\":1025:1124   */\n    tag_82:\n        /* \"#utility.yul\":1077:1083   */\n      0x00\n        /* \"#utility.yul\":1111:1116   */\n      dup2\n        /* \"#utility.yul\":1105:1117   */\n      mload\n        /* \"#utility.yul\":1095:1117   */\n      swap1\n      pop\n        /* \"#utility.yul\":1025:1124   */\n      swap2\n      swap1\n      pop\n      jump\t// out\n        /* \"#utility.yul\":1130:1299   */\n    tag_83:\n        /* \"#utility.yul\":1214:1225   */\n      0x00\n        /* \"#utility.yul\":1248:1254   */\n      dup3\n        /* \"#utility.yul\":1243:1246   */\n      dup3\n        /* \"#utility.yul\":1236:1255   */\n      mstore\n        /* \"#utility.yul\":1288:1292   */\n      0x20\n        /* \"#utility.yul\":1283:1286   */\n      dup3\n        /* \"#utility.yul\":1279:1293   */\n      add\n        /* \"#utility.yul\":1264:1293   */\n      swap1\n      pop\n        /* \"#utility.yul\":1130:1299   */\n      swap3\n      swap2\n      pop\n      pop\n      jump\t// out\n        /* \"#utility.yul\":1305:1444   */\n    tag_84:\n        /* \"#utility.yul\":1394:1400   */\n      dup3\n        /* \"#utility.yul\":1389:1392   */\n      dup2\n        /* \"#utility.yul\":1384:1387   */\n      dup4\n        /* \"#utility.yul\":1378:1401   */\n      mcopy\n        /* \"#utility.yul\":1435:1436   */\n      0x00\n        /* \"#utility.yul\":1426:1432   */\n      dup4\n        /* \"#utility.yul\":1421:1424   */\n      dup4\n        /* \"#utility.yul\":1417:1433   */\n      add\n        /* \"#utility.yul\":1410:1437   */\n      mstore\n        /* \"#utility.yul\":1305:1444   */\n      pop\n      pop\n      pop\n      jump\t// out\n        /* \"#utility.yul\":1450:1552   */\n    tag_85:\n        /* \"#utility.yul\":1491:1497   */\n      0x00\n        /* \"#utility.yul\":1542:1544   */\n      0x1f\n        /* \"#utility.yul\":1538:1545   */\n      not\n        /* \"#utility.yul\":1533:1535   */\n      0x1f\n        /* \"#utility.yul\":1526:1531   */\n      dup4\n        /* \"#utility.yul\":1522:1536   */\n      add\n        /* \"#utility.yul\":1518:1546   */\n      and\n        /* \"#utility.yul\":1508:1546   */\n      swap1\n      pop\n        /* \"#utility.yul\":1450:1552   */\n      swap2\n      swap1\n      pop\n      jump\t// out\n        /* \"#utility.yul\":1558:1935   */\n    tag_86:\n        /* \"#utility.yul\":1646:1649   */\n      0x00\n        /* \"#utility.yul\":1674:1713   */\n      tag_145\n        /* \"#utility.yul\":1707:1712   */\n      dup3\n        /* \"#utility.yul\":1674:1713   */\n      tag_82\n      jump\t// in\n    tag_145:\n        /* \"#utility.yul\":1729:1800   */\n      tag_146\n        /* \"#utility.yul\":1793:1799   */\n      dup2\n        /* \"#utility.yul\":1788:1791   */\n      dup6\n        /* \"#utility.yul\":1729:1800   */\n      tag_83\n      jump\t// in\n    tag_146:\n        /* \"#utility.yul\":1722:1800   */\n      swap4\n      pop\n        /* \"#utility.yul\":1809:1874   */\n      tag_147\n        /* \"#utility.yul\":1867:1873   */\n      dup2\n        /* \"#utility.yul\":1862:1865   */\n      dup6\n        /* \"#utility.yul\":1855:1859   */\n      0x20\n        /* \"#utility.yul\":1848:1853   */\n      dup7\n        /* \"#utility.yul\":1844:1860   */\n      add\n        /* \"#utility.yul\":1809:1874   */\n      tag_84\n      jump\t// in\n    tag_147:\n        /* \"#utility.yul\":1899:1928   */\n      tag_148\n        /* \"#utility.yul\":1921:1927   */\n      dup2\n        /* \"#utility.yul\":1899:1928   */\n      tag_85\n      jump\t// in\n    tag_148:\n        /* \"#utility.yul\":1894:1897   */\n      dup5\n        /* \"#utility.yul\":1890:1929   */\n      add\n        /* \"#utility.yul\":1883:1929   */\n      swap2\n      pop\n        /* \"#utility.yul\":1650:1935   */\n      pop\n        /* \"#utility.yul\":1558:1935   */\n      swap3\n      swap2\n      pop\n      pop\n      jump\t// out\n        /* \"#utility.yul\":1941:2059   */\n    tag_87:\n        /* \"#utility.yul\":2028:2052   */\n      tag_150\n        /* \"#utility.yul\":2046:2051   */\n      dup2\n        /* \"#utility.yul\":2028:2052   */\n      tag_79\n      jump\t// in\n    tag_150:\n        /* \"#utility.yul\":2023:2026   */\n      dup3\n        /* \"#utility.yul\":2016:2053   */\n      mstore\n        /* \"#utility.yul\":1941:2059   */\n      pop\n      pop\n      jump\t// out\n        /* \"#utility.yul\":2065:2488   */\n    tag_17:\n        /* \"#utility.yul\":2206:2210   */\n      0x00\n        /* \"#utility.yul\":2244:2246   */\n      0x40\n        /* \"#utility.yul\":2233:2242   */\n      dup3\n        /* \"#utility.yul\":2229:2247   */\n      add\n        /* \"#utility.yul\":2221:2247   */\n      swap1\n      pop\n        /* \"#utility.yul\":2293:2302   */\n      dup2\n        /* \"#utility.yul\":2287:2291   */\n      dup2\n        /* \"#utility.yul\":2283:2303   */\n      sub\n        /* \"#utility.yul\":2279:2280   */\n      0x00\n        /* \"#utility.yul\":2268:2277   */\n      dup4\n        /* \"#utility.yul\":2264:2281   */\n      add\n        /* \"#utility.yul\":2257:2304   */\n      mstore\n        /* \"#utility.yul\":2321:2399   */\n      tag_152\n        /* \"#utility.yul\":2394:2398   */\n      dup2\n        /* \"#utility.yul\":2385:2391   */\n      dup6\n        /* \"#utility.yul\":2321:2399   */\n      tag_86\n      jump\t// in\n    tag_152:\n        /* \"#utility.yul\":2313:2399   */\n      swap1\n      pop\n        /* \"#utility.yul\":2409:2481   */\n      tag_153\n        /* \"#utility.yul\":2477:2479   */\n      0x20\n        /* \"#utility.yul\":2466:2475   */\n      dup4\n        /* \"#utility.yul\":2462:2480   */\n      add\n        /* \"#utility.yul\":2453:2459   */\n      dup5\n        /* \"#utility.yul\":2409:2481   */\n      tag_87\n      jump\t// in\n    tag_153:\n        /* \"#utility.yul\":2065:2488   */\n      swap4\n      swap3\n      pop\n      pop\n      pop\n      jump\t// out\n        /* \"#utility.yul\":2494:2620   */\n    tag_88:\n        /* \"#utility.yul\":2531:2538   */\n      0x00\n        /* \"#utility.yul\":2571:2613   */\n      0xffffffffffffffffffffffffffffffffffffffff\n        /* \"#utility.yul\":2564:2569   */\n      dup3\n        /* \"#utility.yul\":2560:2614   */\n      and\n        /* \"#utility.yul\":2549:2614   */\n      swap1\n      pop\n        /* \"#utility.yul\":2494:2620   */\n      swap2\n      swap1\n      pop\n      jump\t// out\n        /* \"#utility.yul\":2626:2722   */\n    tag_89:\n        /* \"#utility.yul\":2663:2670   */\n      0x00\n        /* \"#utility.yul\":2692:2716   */\n      tag_156\n        /* \"#utility.yul\":2710:2715   */\n      dup3\n        /* \"#utility.yul\":2692:2716   */\n      tag_88\n      jump\t// in\n    tag_156:\n        /* \"#utility.yul\":2681:2716   */\n      swap1\n      pop\n        /* \"#utility.yul\":2626:2722   */\n      swap2\n      swap1\n      pop\n      jump\t// out\n        /* \"#utility.yul\":2728:2850   */\n    tag_90:\n        /* \"#utility.yul\":2801:2825   */\n      tag_158\n        /* \"#utility.yul\":2819:2824   */\n      dup2\n        /* \"#utility.yul\":2801:2825   */\n      tag_89\n      jump\t// in\n    tag_158:\n        /* \"#utility.yul\":2794:2799   */\n      dup2\n        /* \"#utility.yul\":2791:2826   */\n      eq\n        /* \"#utility.yul\":2781:2844   */\n      tag_159\n      jumpi\n        /* \"#utility.yul\":2840:2841   */\n      0x00\n        /* \"#utility.yul\":2837:2838   */\n      dup1\n        /* \"#utility.yul\":2830:2842   */\n      revert\n        /* \"#utility.yul\":2781:2844   */\n    tag_159:\n        /* \"#utility.yul\":2728:2850   */\n      pop\n      jump\t// out\n        /* \"#utility.yul\":2856:2995   */\n    tag_91:\n        /* \"#utility.yul\":2902:2907   */\n      0x00\n        /* \"#utility.yul\":2940:2946   */\n      dup2\n        /* \"#utility.yul\":2927:2947   */\n      calldataload\n        /* \"#utility.yul\":2918:2947   */\n      swap1\n      pop\n        /* \"#utility.yul\":2956:2989   */\n      tag_161\n        /* \"#utility.yul\":2983:2988   */\n      dup2\n        /* \"#utility.yul\":2956:2989   */\n      tag_90\n      jump\t// in\n    tag_161:\n        /* \"#utility.yul\":2856:2995   */\n      swap3\n      swap2\n      pop\n      pop\n      jump\t// out\n        /* \"#utility.yul\":3001:3330   */\n    tag_24:\n        /* \"#utility.yul\":3060:3066   */\n      0x00\n        /* \"#utility.yul\":3109:3111   */\n      0x20\n        /* \"#utility.yul\":3097:3106   */\n      dup3\n        /* \"#utility.yul\":3088:3095   */\n      dup5\n        /* \"#utility.yul\":3084:3107   */\n      sub\n        /* \"#utility.yul\":3080:3112   */\n      slt\n        /* \"#utility.yul\":3077:3196   */\n      iszero\n      tag_163\n      jumpi\n        /* \"#utility.yul\":3115:3194   */\n      tag_164\n      tag_77\n      jump\t// in\n    tag_164:\n        /* \"#utility.yul\":3077:3196   */\n    tag_163:\n        /* \"#utility.yul\":3235:3236   */\n      0x00\n        /* \"#utility.yul\":3260:3313   */\n      tag_165\n        /* \"#utility.yul\":3305:3312   */\n      dup5\n        /* \"#utility.yul\":3296:3302   */\n      dup3\n        /* \"#utility.yul\":3285:3294   */\n      dup6\n        /* \"#utility.yul\":3281:3303   */\n      add\n        /* \"#utility.yul\":3260:3313   */\n      tag_91\n      jump\t// in\n    tag_165:\n        /* \"#utility.yul\":3250:3313   */\n      swap2\n      pop\n        /* \"#utility.yul\":3206:3323   */\n      pop\n        /* \"#utility.yul\":3001:3330   */\n      swap3\n      swap2\n      pop\n      pop\n      jump\t// out\n        /* \"#utility.yul\":3336:3426   */\n    tag_92:\n        /* \"#utility.yul\":3370:3377   */\n      0x00\n        /* \"#utility.yul\":3413:3418   */\n      dup2\n        /* \"#utility.yul\":3406:3419   */\n      iszero\n        /* \"#utility.yul\":3399:3420   */\n      iszero\n        /* \"#utility.yul\":3388:3420   */\n      swap1\n      pop\n        /* \"#utility.yul\":3336:3426   */\n      swap2\n      swap1\n      pop\n      jump\t// out\n        /* \"#utility.yul\":3432:3541   */\n    tag_93:\n        /* \"#utility.yul\":3513:3534   */\n      tag_168\n        /* \"#utility.yul\":3528:3533   */\n      dup2\n        /* \"#utility.yul\":3513:3534   */\n      tag_92\n      jump\t// in\n    tag_168:\n        /* \"#utility.yul\":3508:3511   */\n      dup3\n        /* \"#utility.yul\":3501:3535   */\n      mstore\n        /* \"#utility.yul\":3432:3541   */\n      pop\n      pop\n      jump\t// out\n        /* \"#utility.yul\":3547:3757   */\n    tag_27:\n        /* \"#utility.yul\":3634:3638   */\n      0x00\n        /* \"#utility.yul\":3672:3674   */\n      0x20\n        /* \"#utility.yul\":3661:3670   */\n      dup3\n        /* \"#utility.yul\":3657:3675   */\n      add\n        /* \"#utility.yul\":3649:3675   */\n      swap1\n      pop\n        /* \"#utility.yul\":3685:3750   */\n      tag_170\n        /* \"#utility.yul\":3747:3748   */\n      0x00\n        /* \"#utility.yul\":3736:3745   */\n      dup4\n        /* \"#utility.yul\":3732:3749   */\n      add\n        /* \"#utility.yul\":3723:3729   */\n      dup5\n        /* \"#utility.yul\":3685:3750   */\n      tag_93\n      jump\t// in\n    tag_170:\n        /* \"#utility.yul\":3547:3757   */\n      swap3\n      swap2\n      pop\n      pop\n      jump\t// out\n        /* \"#utility.yul\":3763:3985   */\n    tag_31:\n        /* \"#utility.yul\":3856:3860   */\n      0x00\n        /* \"#utility.yul\":3894:3896   */\n      0x20\n        /* \"#utility.yul\":3883:3892   */\n      dup3\n        /* \"#utility.yul\":3879:3897   */\n      add\n        /* \"#utility.yul\":3871:3897   */\n      swap1\n      pop\n        /* \"#utility.yul\":3907:3978   */\n      tag_172\n        /* \"#utility.yul\":3975:3976   */\n      0x00\n        /* \"#utility.yul\":3964:3973   */\n      dup4\n        /* \"#utility.yul\":3960:3977   */\n      add\n        /* \"#utility.yul\":3951:3957   */\n      dup5\n        /* \"#utility.yul\":3907:3978   */\n      tag_87\n      jump\t// in\n    tag_172:\n        /* \"#utility.yul\":3763:3985   */\n      swap3\n      swap2\n      pop\n      pop\n      jump\t// out\n        /* \"#utility.yul\":3991:4108   */\n    tag_94:\n        /* \"#utility.yul\":4100:4101   */\n      0x00\n        /* \"#utility.yul\":4097:4098   */\n      dup1\n        /* \"#utility.yul\":4090:4102   */\n      revert\n        /* \"#utility.yul\":4114:4231   */\n    tag_95:\n        /* \"#utility.yul\":4223:4224   */\n      0x00\n        /* \"#utility.yul\":4220:4221   */\n      dup1\n        /* \"#utility.yul\":4213:4225   */\n      revert\n        /* \"#utility.yul\":4237:4417   */\n    tag_96:\n        /* \"#utility.yul\":4285:4362   */\n      0x4e487b7100000000000000000000000000000000000000000000000000000000\n        /* \"#utility.yul\":4282:4283   */\n      0x00\n        /* \"#utility.yul\":4275:4363   */\n      mstore\n        /* \"#utility.yul\":4382:4386   */\n      0x41\n        /* \"#utility.yul\":4379:4380   */\n      0x04\n        /* \"#utility.yul\":4372:4387   */\n      mstore\n        /* \"#utility.yul\":4406:4410   */\n      0x24\n        /* \"#utility.yul\":4403:4404   */\n      0x00\n        /* \"#utility.yul\":4396:4411   */\n      revert\n        /* \"#utility.yul\":4423:4704   */\n    tag_97:\n        /* \"#utility.yul\":4506:4533   */\n      tag_177\n        /* \"#utility.yul\":4528:4532   */\n      dup3\n        /* \"#utility.yul\":4506:4533   */\n      tag_85\n      jump\t// in\n    tag_177:\n        /* \"#utility.yul\":4498:4504   */\n      dup2\n        /* \"#utility.yul\":4494:4534   */\n      add\n        /* \"#utility.yul\":4636:4642   */\n      dup2\n        /* \"#utility.yul\":4624:4634   */\n      dup2\n        /* \"#utility.yul\":4621:4643   */\n      lt\n        /* \"#utility.yul\":4600:4618   */\n      0xffffffffffffffff\n        /* \"#utility.yul\":4588:4598   */\n      dup3\n        /* \"#utility.yul\":4585:4619   */\n      gt\n        /* \"#utility.yul\":4582:4644   */\n      or\n        /* \"#utility.yul\":4579:4667   */\n      iszero\n      tag_178\n      jumpi\n        /* \"#utility.yul\":4647:4665   */\n      tag_179\n      tag_96\n      jump\t// in\n    tag_179:\n        /* \"#utility.yul\":4579:4667   */\n    tag_178:\n        /* \"#utility.yul\":4687:4697   */\n      dup1\n        /* \"#utility.yul\":4683:4685   */\n      0x40\n        /* \"#utility.yul\":4676:4698   */\n      mstore\n        /* \"#utility.yul\":4466:4704   */\n      pop\n        /* \"#utility.yul\":4423:4704   */\n      pop\n      pop\n      jump\t// out\n        /* \"#utility.yul\":4710:4839   */\n    tag_98:\n        /* \"#utility.yul\":4744:4750   */\n      0x00\n        /* \"#utility.yul\":4771:4791   */\n      tag_181\n      tag_76\n      jump\t// in\n    tag_181:\n        /* \"#utility.yul\":4761:4791   */\n      swap1\n      pop\n        /* \"#utility.yul\":4800:4833   */\n      tag_182\n        /* \"#utility.yul\":4828:4832   */\n      dup3\n        /* \"#utility.yul\":4820:4826   */\n      dup3\n        /* \"#utility.yul\":4800:4833   */\n      tag_97\n      jump\t// in\n    tag_182:\n        /* \"#utility.yul\":4710:4839   */\n      swap2\n      swap1\n      pop\n      jump\t// out\n        /* \"#utility.yul\":4845:5153   */\n    tag_99:\n        /* \"#utility.yul\":4907:4911   */\n      0x00\n        /* \"#utility.yul\":4997:5015   */\n      0xffffffffffffffff\n        /* \"#utility.yul\":4989:4995   */\n      dup3\n        /* \"#utility.yul\":4986:5016   */\n      gt\n        /* \"#utility.yul\":4983:5039   */\n      iszero\n      tag_184\n      jumpi\n        /* \"#utility.yul\":5019:5037   */\n      tag_185\n      tag_96\n      jump\t// in\n    tag_185:\n        /* \"#utility.yul\":4983:5039   */\n    tag_184:\n        /* \"#utility.yul\":5057:5086   */\n      tag_186\n        /* \"#utility.yul\":5079:5085   */\n      dup3\n        /* \"#utility.yul\":5057:5086   */\n      tag_85\n      jump\t// in\n    tag_186:\n        /* \"#utility.yul\":5049:5086   */\n      swap1\n      pop\n        /* \"#utility.yul\":5141:5145   */\n      0x20\n        /* \"#utility.yul\":5135:5139   */\n      dup2\n        /* \"#utility.yul\":5131:5146   */\n      add\n        /* \"#utility.yul\":5123:5146   */\n      swap1\n      pop\n        /* \"#utility.yul\":4845:5153   */\n      swap2\n      swap1\n      pop\n      jump\t// out\n        /* \"#utility.yul\":5159:5307   */\n    tag_100:\n        /* \"#utility.yul\":5257:5263   */\n      dup3\n        /* \"#utility.yul\":5252:5255   */\n      dup2\n        /* \"#utility.yul\":5247:5250   */\n      dup4\n        /* \"#utility.yul\":5234:5264   */\n      calldatacopy\n        /* \"#utility.yul\":5298:5299   */\n      0x00\n        /* \"#utility.yul\":5289:5295   */\n      dup4\n        /* \"#utility.yul\":5284:5287   */\n      dup4\n        /* \"#utility.yul\":5280:5296   */\n      add\n        /* \"#utility.yul\":5273:5300   */\n      mstore\n        /* \"#utility.yul\":5159:5307   */\n      pop\n      pop\n      pop\n      jump\t// out\n        /* \"#utility.yul\":5313:5738   */\n    tag_101:\n        /* \"#utility.yul\":5391:5396   */\n      0x00\n        /* \"#utility.yul\":5416:5482   */\n      tag_189\n        /* \"#utility.yul\":5432:5481   */\n      tag_190\n        /* \"#utility.yul\":5474:5480   */\n      dup5\n        /* \"#utility.yul\":5432:5481   */\n      tag_99\n      jump\t// in\n    tag_190:\n        /* \"#utility.yul\":5416:5482   */\n      tag_98\n      jump\t// in\n    tag_189:\n        /* \"#utility.yul\":5407:5482   */\n      swap1\n      pop\n        /* \"#utility.yul\":5505:5511   */\n      dup3\n        /* \"#utility.yul\":5498:5503   */\n      dup2\n        /* \"#utility.yul\":5491:5512   */\n      mstore\n        /* \"#utility.yul\":5543:5547   */\n      0x20\n        /* \"#utility.yul\":5536:5541   */\n      dup2\n        /* \"#utility.yul\":5532:5548   */\n      add\n        /* \"#utility.yul\":5581:5584   */\n      dup5\n        /* \"#utility.yul\":5572:5578   */\n      dup5\n        /* \"#utility.yul\":5567:5570   */\n      dup5\n        /* \"#utility.yul\":5563:5579   */\n      add\n        /* \"#utility.yul\":5560:5585   */\n      gt\n        /* \"#utility.yul\":5557:5669   */\n      iszero\n      tag_191\n      jumpi\n        /* \"#utility.yul\":5588:5667   */\n      tag_192\n      tag_95\n      jump\t// in\n    tag_192:\n        /* \"#utility.yul\":5557:5669   */\n    tag_191:\n        /* \"#utility.yul\":5678:5732   */\n      tag_193\n        /* \"#utility.yul\":5725:5731   */\n      dup5\n        /* \"#utility.yul\":5720:5723   */\n      dup3\n        /* \"#utility.yul\":5715:5718   */\n      dup6\n        /* \"#utility.yul\":5678:5732   */\n      tag_100\n      jump\t// in\n    tag_193:\n        /* \"#utility.yul\":5397:5738   */\n      pop\n        /* \"#utility.yul\":5313:5738   */\n      swap4\n      swap3\n      pop\n      pop\n      pop\n      jump\t// out\n        /* \"#utility.yul\":5758:6098   */\n    tag_102:\n        /* \"#utility.yul\":5814:5819   */\n      0x00\n        /* \"#utility.yul\":5863:5866   */\n      dup3\n        /* \"#utility.yul\":5856:5860   */\n      0x1f\n        /* \"#utility.yul\":5848:5854   */\n      dup4\n        /* \"#utility.yul\":5844:5861   */\n      add\n        /* \"#utility.yul\":5840:5867   */\n      slt\n        /* \"#utility.yul\":5830:5952   */\n      tag_195\n      jumpi\n        /* \"#utility.yul\":5871:5950   */\n      tag_196\n      tag_94\n      jump\t// in\n    tag_196:\n        /* \"#utility.yul\":5830:5952   */\n    tag_195:\n        /* \"#utility.yul\":5988:5994   */\n      dup2\n        /* \"#utility.yul\":5975:5995   */\n      calldataload\n        /* \"#utility.yul\":6013:6092   */\n      tag_197\n        /* \"#utility.yul\":6088:6091   */\n      dup5\n        /* \"#utility.yul\":6080:6086   */\n      dup3\n        /* \"#utility.yul\":6073:6077   */\n      0x20\n        /* \"#utility.yul\":6065:6071   */\n      dup7\n        /* \"#utility.yul\":6061:6078   */\n      add\n        /* \"#utility.yul\":6013:6092   */\n      tag_101\n      jump\t// in\n    tag_197:\n        /* \"#utility.yul\":6004:6092   */\n      swap2\n      pop\n        /* \"#utility.yul\":5820:6098   */\n      pop\n        /* \"#utility.yul\":5758:6098   */\n      swap3\n      swap2\n      pop\n      pop\n      jump\t// out\n        /* \"#utility.yul\":6104:6613   */\n    tag_34:\n        /* \"#utility.yul\":6173:6179   */\n      0x00\n        /* \"#utility.yul\":6222:6224   */\n      0x20\n        /* \"#utility.yul\":6210:6219   */\n      dup3\n        /* \"#utility.yul\":6201:6208   */\n      dup5\n        /* \"#utility.yul\":6197:6220   */\n      sub\n        /* \"#utility.yul\":6193:6225   */\n      slt\n        /* \"#utility.yul\":6190:6309   */\n      iszero\n      tag_199\n      jumpi\n        /* \"#utility.yul\":6228:6307   */\n      tag_200\n      tag_77\n      jump\t// in\n    tag_200:\n        /* \"#utility.yul\":6190:6309   */\n    tag_199:\n        /* \"#utility.yul\":6376:6377   */\n      0x00\n        /* \"#utility.yul\":6365:6374   */\n      dup3\n        /* \"#utility.yul\":6361:6378   */\n      add\n        /* \"#utility.yul\":6348:6379   */\n      calldataload\n        /* \"#utility.yul\":6406:6424   */\n      0xffffffffffffffff\n        /* \"#utility.yul\":6398:6404   */\n      dup2\n        /* \"#utility.yul\":6395:6425   */\n      gt\n        /* \"#utility.yul\":6392:6509   */\n      iszero\n      tag_201\n      jumpi\n        /* \"#utility.yul\":6428:6507   */\n      tag_202\n      tag_78\n      jump\t// in\n    tag_202:\n        /* \"#utility.yul\":6392:6509   */\n    tag_201:\n        /* \"#utility.yul\":6533:6596   */\n      tag_203\n        /* \"#utility.yul\":6588:6595   */\n      dup5\n        /* \"#utility.yul\":6579:6585   */\n      dup3\n        /* \"#utility.yul\":6568:6577   */\n      dup6\n        /* \"#utility.yul\":6564:6586   */\n      add\n        /* \"#utility.yul\":6533:6596   */\n      tag_102\n      jump\t// in\n    tag_203:\n        /* \"#utility.yul\":6523:6596   */\n      swap2\n      pop\n        /* \"#utility.yul\":6319:6606   */\n      pop\n        /* \"#utility.yul\":6104:6613   */\n      swap3\n      swap2\n      pop\n      pop\n      jump\t// out\n        /* \"#utility.yul\":6619:6789   */\n    tag_103:\n        /* \"#utility.yul\":6759:6781   */\n      0x496e76616c6964206f7074696f6e20696e646578000000000000000000000000\n        /* \"#utility.yul\":6755:6756   */\n      0x00\n        /* \"#utility.yul\":6747:6753   */\n      dup3\n        /* \"#utility.yul\":6743:6757   */\n      add\n        /* \"#utility.yul\":6736:6782   */\n      mstore\n        /* \"#utility.yul\":6619:6789   */\n      pop\n      jump\t// out\n        /* \"#utility.yul\":6795:7161   */\n    tag_104:\n        /* \"#utility.yul\":6937:6940   */\n      0x00\n        /* \"#utility.yul\":6958:7025   */\n      tag_206\n        /* \"#utility.yul\":7022:7024   */\n      0x14\n        /* \"#utility.yul\":7017:7020   */\n      dup4\n        /* \"#utility.yul\":6958:7025   */\n      tag_83\n      jump\t// in\n    tag_206:\n        /* \"#utility.yul\":6951:7025   */\n      swap2\n      pop\n        /* \"#utility.yul\":7034:7127   */\n      tag_207\n        /* \"#utility.yul\":7123:7126   */\n      dup3\n        /* \"#utility.yul\":7034:7127   */\n      tag_103\n      jump\t// in\n    tag_207:\n        /* \"#utility.yul\":7152:7154   */\n      0x20\n        /* \"#utility.yul\":7147:7150   */\n      dup3\n        /* \"#utility.yul\":7143:7155   */\n      add\n        /* \"#utility.yul\":7136:7155   */\n      swap1\n      pop\n        /* \"#utility.yul\":6795:7161   */\n      swap2\n      swap1\n      pop\n      jump\t// out\n        /* \"#utility.yul\":7167:7586   */\n    tag_39:\n        /* \"#utility.yul\":7333:7337   */\n      0x00\n        /* \"#utility.yul\":7371:7373   */\n      0x20\n        /* \"#utility.yul\":7360:7369   */\n      dup3\n        /* \"#utility.yul\":7356:7374   */\n      add\n        /* \"#utility.yul\":7348:7374   */\n      swap1\n      pop\n        /* \"#utility.yul\":7420:7429   */\n      dup2\n        /* \"#utility.yul\":7414:7418   */\n      dup2\n        /* \"#utility.yul\":7410:7430   */\n      sub\n        /* \"#utility.yul\":7406:7407   */\n      0x00\n        /* \"#utility.yul\":7395:7404   */\n      dup4\n        /* \"#utility.yul\":7391:7408   */\n      add\n        /* \"#utility.yul\":7384:7431   */\n      mstore\n        /* \"#utility.yul\":7448:7579   */\n      tag_209\n        /* \"#utility.yul\":7574:7578   */\n      dup2\n        /* \"#utility.yul\":7448:7579   */\n      tag_104\n      jump\t// in\n    tag_209:\n        /* \"#utility.yul\":7440:7579   */\n      swap1\n      pop\n        /* \"#utility.yul\":7167:7586   */\n      swap2\n      swap1\n      pop\n      jump\t// out\n        /* \"#utility.yul\":7592:7755   */\n    tag_105:\n        /* \"#utility.yul\":7732:7747   */\n      0x416c726561647920766f74656400000000000000000000000000000000000000\n        /* \"#utility.yul\":7728:7729   */\n      0x00\n        /* \"#utility.yul\":7720:7726   */\n      dup3\n        /* \"#utility.yul\":7716:7730   */\n      add\n        /* \"#utility.yul\":7709:7748   */\n      mstore\n        /* \"#utility.yul\":7592:7755   */\n      pop\n      jump\t// out\n        /* \"#utility.yul\":7761:8127   */\n    tag_106:\n        /* \"#utility.yul\":7903:7906   */\n      0x00\n        /* \"#utility.yul\":7924:7991   */\n      tag_212\n        /* \"#utility.yul\":7988:7990   */\n      0x0d\n        /* \"#utility.yul\":7983:7986   */\n      dup4\n        /* \"#utility.yul\":7924:7991   */\n      tag_83\n      jump\t// in\n    tag_212:\n        /* \"#utility.yul\":7917:7991   */\n      swap2\n      pop\n        /* \"#utility.yul\":8000:8093   */\n      tag_213\n        /* \"#utility.yul\":8089:8092   */\n      dup3\n        /* \"#utility.yul\":8000:8093   */\n      tag_105\n      jump\t// in\n    tag_213:\n        /* \"#utility.yul\":8118:8120   */\n      0x20\n        /* \"#utility.yul\":8113:8116   */\n      dup3\n        /* \"#utility.yul\":8109:8121   */\n      add\n        /* \"#utility.yul\":8102:8121   */\n      swap1\n      pop\n        /* \"#utility.yul\":7761:8127   */\n      swap2\n      swap1\n      pop\n      jump\t// out\n        /* \"#utility.yul\":8133:8552   */\n    tag_42:\n        /* \"#utility.yul\":8299:8303   */\n      0x00\n        /* \"#utility.yul\":8337:8339   */\n      0x20\n        /* \"#utility.yul\":8326:8335   */\n      dup3\n        /* \"#utility.yul\":8322:8340   */\n      add\n        /* \"#utility.yul\":8314:8340   */\n      swap1\n      pop\n        /* \"#utility.yul\":8386:8395   */\n      dup2\n        /* \"#utility.yul\":8380:8384   */\n      dup2\n        /* \"#utility.yul\":8376:8396   */\n      sub\n        /* \"#utility.yul\":8372:8373   */\n      0x00\n        /* \"#utility.yul\":8361:8370   */\n      dup4\n        /* \"#utility.yul\":8357:8374   */\n      add\n        /* \"#utility.yul\":8350:8397   */\n      mstore\n        /* \"#utility.yul\":8414:8545   */\n      tag_215\n        /* \"#utility.yul\":8540:8544   */\n      dup2\n        /* \"#utility.yul\":8414:8545   */\n      tag_106\n      jump\t// in\n    tag_215:\n        /* \"#utility.yul\":8406:8545   */\n      swap1\n      pop\n        /* \"#utility.yul\":8133:8552   */\n      swap2\n      swap1\n      pop\n      jump\t// out\n        /* \"#utility.yul\":8558:8738   */\n    tag_45:\n        /* \"#utility.yul\":8606:8683   */\n      0x4e487b7100000000000000000000000000000000000000000000000000000000\n        /* \"#utility.yul\":8603:8604   */\n      0x00\n        /* \"#utility.yul\":8596:8684   */\n      mstore\n        /* \"#utility.yul\":8703:8707   */\n      0x32\n        /* \"#utility.yul\":8700:8701   */\n      0x04\n        /* \"#utility.yul\":8693:8708   */\n      mstore\n        /* \"#utility.yul\":8727:8731   */\n      0x24\n        /* \"#utility.yul\":8724:8725   */\n      0x00\n        /* \"#utility.yul\":8717:8732   */\n      revert\n        /* \"#utility.yul\":8744:8924   */\n    tag_107:\n        /* \"#utility.yul\":8792:8869   */\n      0x4e487b7100000000000000000000000000000000000000000000000000000000\n        /* \"#utility.yul\":8789:8790   */\n      0x00\n        /* \"#utility.yul\":8782:8870   */\n      mstore\n        /* \"#utility.yul\":8889:8893   */\n      0x11\n        /* \"#utility.yul\":8886:8887   */\n      0x04\n        /* \"#utility.yul\":8879:8894   */\n      mstore\n        /* \"#utility.yul\":8913:8917   */\n      0x24\n        /* \"#utility.yul\":8910:8911   */\n      0x00\n        /* \"#utility.yul\":8903:8918   */\n      revert\n        /* \"#utility.yul\":8930:9163   */\n    tag_48:\n        /* \"#utility.yul\":8969:8972   */\n      0x00\n        /* \"#utility.yul\":8992:9016   */\n      tag_219\n        /* \"#utility.yul\":9010:9015   */\n      dup3\n        /* \"#utility.yul\":8992:9016   */\n      tag_79\n      jump\t// in\n    tag_219:\n        /* \"#utility.yul\":8983:9016   */\n      swap2\n      pop\n        /* \"#utility.yul\":9038:9104   */\n      0xffffffffffffffffffffffffffffffffffffffffffffffffffffffffffffffff\n        /* \"#utility.yul\":9031:9036   */\n      dup3\n        /* \"#utility.yul\":9028:9105   */\n      sub\n        /* \"#utility.yul\":9025:9128   */\n      tag_220\n      jumpi\n        /* \"#utility.yul\":9108:9126   */\n      tag_221\n      tag_107\n      jump\t// in\n    tag_221:\n        /* \"#utility.yul\":9025:9128   */\n    tag_220:\n        /* \"#utility.yul\":9155:9156   */\n      0x01\n        /* \"#utility.yul\":9148:9153   */\n      dup3\n        /* \"#utility.yul\":9144:9157   */\n      add\n        /* \"#utility.yul\":9137:9157   */\n      swap1\n      pop\n        /* \"#utility.yul\":8930:9163   */\n      swap2\n      swap1\n      pop\n      jump\t// out\n        /* \"#utility.yul\":9169:9349   */\n    tag_108:\n        /* \"#utility.yul\":9217:9294   */\n      0x4e487b7100000000000000000000000000000000000000000000000000000000\n        /* \"#utility.yul\":9214:9215   */\n      0x00\n        /* \"#utility.yul\":9207:9295   */\n      mstore\n        /* \"#utility.yul\":9314:9318   */\n      0x22\n        /* \"#utility.yul\":9311:9312   */\n      0x04\n        /* \"#utility.yul\":9304:9319   */\n      mstore\n        /* \"#utility.yul\":9338:9342   */\n      0x24\n        /* \"#utility.yul\":9335:9336   */\n      0x00\n        /* \"#utility.yul\":9328:9343   */\n      revert\n        /* \"#utility.yul\":9355:9675   */\n    tag_56:\n        /* \"#utility.yul\":9399:9405   */\n      0x00\n        /* \"#utility.yul\":9436:9437   */\n      0x02\n        /* \"#utility.yul\":9430:9434   */\n      dup3\n        /* \"#utility.yul\":9426:9438   */\n      div\n        /* \"#utility.yul\":9416:9438   */\n      swap1\n      pop\n        /* \"#utility.yul\":9483:9484   */\n      0x01\n        /* \"#utility.yul\":9477:9481   */\n      dup3\n        /* \"#utility.yul\":9473:9485   */\n      and\n        /* \"#utility.yul\":9504:9522   */\n      dup1\n        /* \"#utility.yul\":9494:9575   */\n      tag_224\n      jumpi\n        /* \"#utility.yul\":9560:9564   */\n      0x7f\n        /* \"#utility.yul\":9552:9558   */\n      dup3\n        /* \"#utility.yul\":9548:9565   */\n      and\n        /* \"#utility.yul\":9538:9565   */\n      swap2\n      pop\n        /* \"#utility.yul\":9494:9575   */\n    tag_224:\n        /* \"#utility.yul\":9622:9624   */\n      0x20\n        /* \"#utility.yul\":9614:9620   */\n      dup3\n        /* \"#utility.yul\":9611:9625   */\n      lt\n        /* \"#utility.yul\":9591:9609   */\n      dup2\n        /* \"#utility.yul\":9588:9626   */\n      sub\n        /* \"#utility.yul\":9585:9669   */\n      tag_225\n      jumpi\n        /* \"#utility.yul\":9641:9659   */\n      tag_226\n      tag_108\n      jump\t// in\n    tag_226:\n        /* \"#utility.yul\":9585:9669   */\n    tag_225:\n        /* \"#utility.yul\":9406:9675   */\n      pop\n        /* \"#utility.yul\":9355:9675   */\n      swap2\n      swap1\n      pop\n      jump\t// out\n        /* \"#utility.yul\":9681:9858   */\n    tag_109:\n        /* \"#utility.yul\":9821:9850   */\n      0x4f7074696f6e206e616d652063616e6e6f7420626520656d7074790000000000\n        /* \"#utility.yul\":9817:9818   */\n      0x00\n        /* \"#utility.yul\":9809:9815   */\n      dup3\n        /* \"#utility.yul\":9805:9819   */\n      add\n        /* \"#utility.yul\":9798:9851   */\n      mstore\n        /* \"#utility.yul\":9681:9858   */\n      pop\n      jump\t// out\n        /* \"#utility.yul\":9864:10230   */\n    tag_110:\n        /* \"#utility.yul\":10006:10009   */\n      0x00\n        /* \"#utility.yul\":10027:10094   */\n      tag_229\n        /* \"#utility.yul\":10091:10093   */\n      0x1b\n        /* \"#utility.yul\":10086:10089   */\n      dup4\n        /* \"#utility.yul\":10027:10094   */\n      tag_83\n      jump\t// in\n    tag_229:\n        /* \"#utility.yul\":10020:10094   */\n      swap2\n      pop\n        /* \"#utility.yul\":10103:10196   */\n      tag_230\n        /* \"#utility.yul\":10192:10195   */\n      dup3\n        /* \"#utility.yul\":10103:10196   */\n      tag_109\n      jump\t// in\n    tag_230:\n        /* \"#utility.yul\":10221:10223   */\n      0x20\n        /* \"#utility.yul\":10216:10219   */\n      dup3\n        /* \"#utility.yul\":10212:10224   */\n      add\n        /* \"#utility.yul\":10205:10224   */\n      swap1\n      pop\n        /* \"#utility.yul\":9864:10230   */\n      swap2\n      swap1\n      pop\n      jump\t// out\n        /* \"#utility.yul\":10236:10655   */\n    tag_72:\n        /* \"#utility.yul\":10402:10406   */\n      0x00\n        /* \"#utility.yul\":10440:10442   */\n      0x20\n        /* \"#utility.yul\":10429:10438   */\n      dup3\n        /* \"#utility.yul\":10425:10443   */\n      add\n        /* \"#utility.yul\":10417:10443   */\n      swap1\n      pop\n        /* \"#utility.yul\":10489:10498   */\n      dup2\n        /* \"#utility.yul\":10483:10487   */\n      dup2\n        /* \"#utility.yul\":10479:10499   */\n      sub\n        /* \"#utility.yul\":10475:10476   */\n      0x00\n        /* \"#utility.yul\":10464:10473   */\n      dup4\n        /* \"#utility.yul\":10460:10477   */\n      add\n        /* \"#utility.yul\":10453:10500   */\n      mstore\n        /* \"#utility.yul\":10517:10648   */\n      tag_232\n        /* \"#utility.yul\":10643:10647   */\n      dup2\n        /* \"#utility.yul\":10517:10648   */\n      tag_110\n      jump\t// in\n    tag_232:\n        /* \"#utility.yul\":10509:10648   */\n      swap1\n      pop\n        /* \"#utility.yul\":10236:10655   */\n      swap2\n      swap1\n      pop\n      jump\t// out\n        /* \"#utility.yul\":10661:10802   */\n    tag_111:\n        /* \"#utility.yul\":10710:10714   */\n      0x00\n        /* \"#utility.yul\":10733:10736   */\n      dup2\n        /* \"#utility.yul\":10725:10736   */\n      swap1\n      pop\n        /* \"#utility.yul\":10756:10759   */\n      dup2\n        /* \"#utility.yul\":10753:10754   */\n      0x00\n        /* \"#utility.yul\":10746:10760   */\n      mstore\n        /* \"#utility.yul\":10790:10794   */\n      0x20\n        /* \"#utility.yul\":10787:10788   */\n      0x00\n        /* \"#utility.yul\":10777:10795   */\n      keccak256\n        /* \"#utility.yul\":10769:10795   */\n      swap1\n      pop\n        /* \"#utility.yul\":10661:10802   */\n      swap2\n      swap1\n      pop\n      jump\t// out\n        /* \"#utility.yul\":10808:10901   */\n    tag_112:\n        /* \"#utility.yul\":10845:10851   */\n      0x00\n        /* \"#utility.yul\":10892:10894   */\n      0x20\n        /* \"#utility.yul\":10887:10889   */\n      0x1f\n        /* \"#utility.yul\":10880:10885   */\n      dup4\n        /* \"#utility.yul\":10876:10890   */\n      add\n        /* \"#utility.yul\":10872:10895   */\n      div\n        /* \"#utility.yul\":10862:10895   */\n      swap1\n      pop\n        /* \"#utility.yul\":10808:10901   */\n      swap2\n      swap1\n      pop\n      jump\t// out\n        /* \"#utility.yul\":10907:11014   */\n    tag_113:\n        /* \"#utility.yul\":10951:10959   */\n      0x00\n        /* \"#utility.yul\":11001:11006   */\n      dup3\n        /* \"#utility.yul\":10995:10999   */\n      dup3\n        /* \"#utility.yul\":10991:11007   */\n      shl\n        /* \"#utility.yul\":10970:11007   */\n      swap1\n      pop\n        /* \"#utility.yul\":10907:11014   */\n      swap3\n      swap2\n      pop\n      pop\n      jump\t// out\n        /* \"#utility.yul\":11020:11413   */\n    tag_114:\n        /* \"#utility.yul\":11089:11095   */\n      0x00\n        /* \"#utility.yul\":11139:11140   */\n      0x08\n        /* \"#utility.yul\":11127:11137   */\n      dup4\n        /* \"#utility.yul\":11123:11141   */\n      mul\n        /* \"#utility.yul\":11162:11259   */\n      tag_237\n        /* \"#utility.yul\":11192:11258   */\n      0xffffffffffffffffffffffffffffffffffffffffffffffffffffffffffffffff\n        /* \"#utility.yul\":11181:11190   */\n      dup3\n        /* \"#utility.yul\":11162:11259   */\n      tag_113\n      jump\t// in\n    tag_237:\n        /* \"#utility.yul\":11280:11319   */\n      tag_238\n        /* \"#utility.yul\":11310:11318   */\n      dup7\n        /* \"#utility.yul\":11299:11308   */\n      dup4\n        /* \"#utility.yul\":11280:11319   */\n      tag_113\n      jump\t// in\n    tag_238:\n        /* \"#utility.yul\":11268:11319   */\n      swap6\n      pop\n        /* \"#utility.yul\":11352:11356   */\n      dup1\n        /* \"#utility.yul\":11348:11357   */\n      not\n        /* \"#utility.yul\":11341:11346   */\n      dup5\n        /* \"#utility.yul\":11337:11358   */\n      and\n        /* \"#utility.yul\":11328:11358   */\n      swap4\n      pop\n        /* \"#utility.yul\":11401:11405   */\n      dup1\n        /* \"#utility.yul\":11391:11399   */\n      dup7\n        /* \"#utility.yul\":11387:11406   */\n      and\n        /* \"#utility.yul\":11380:11385   */\n      dup5\n        /* \"#utility.yul\":11377:11407   */\n      or\n        /* \"#utility.yul\":11367:11407   */\n      swap3\n      pop\n        /* \"#utility.yul\":11096:11413   */\n      pop\n      pop\n        /* \"#utility.yul\":11020:11413   */\n      swap4\n      swap3\n      pop\n      pop\n      pop\n      jump\t// out\n        /* \"#utility.yul\":11419:11479   */\n    tag_115:\n        /* \"#utility.yul\":11447:11450   */\n      0x00\n        /* \"#utility.yul\":11468:11473   */\n      dup2\n        /* \"#utility.yul\":11461:11473   */\n      swap1\n      pop\n        /* \"#utility.yul\":11419:11479   */\n      swap2\n      swap1\n      pop\n      jump\t// out\n        /* \"#utility.yul\":11485:11627   */\n    tag_116:\n        /* \"#utility.yul\":11535:11544   */\n      0x00\n        /* \"#utility.yul\":11568:11621   */\n      tag_241\n        /* \"#utility.yul\":11586:11620   */\n      tag_242\n        /* \"#utility.yul\":11595:11619   */\n      tag_243\n        /* \"#utility.yul\":11613:11618   */\n      dup5\n        /* \"#utility.yul\":11595:11619   */\n      tag_79\n      jump\t// in\n    tag_243:\n        /* \"#utility.yul\":11586:11620   */\n      tag_115\n      jump\t// in\n    tag_242:\n        /* \"#utility.yul\":11568:11621   */\n      tag_79\n      jump\t// in\n    tag_241:\n        /* \"#utility.yul\":11555:11621   */\n      swap1\n      pop\n        /* \"#utility.yul\":11485:11627   */\n      swap2\n      swap1\n      pop\n      jump\t// out\n        /* \"#utility.yul\":11633:11708   */\n    tag_117:\n        /* \"#utility.yul\":11676:11679   */\n      0x00\n        /* \"#utility.yul\":11697:11702   */\n      dup2\n        /* \"#utility.yul\":11690:11702   */\n      swap1\n      pop\n        /* \"#utility.yul\":11633:11708   */\n      swap2\n      swap1\n      pop\n      jump\t// out\n        /* \"#utility.yul\":11714:11983   */\n    tag_118:\n        /* \"#utility.yul\":11824:11863   */\n      tag_246\n        /* \"#utility.yul\":11855:11862   */\n      dup4\n        /* \"#utility.yul\":11824:11863   */\n      tag_116\n      jump\t// in\n    tag_246:\n        /* \"#utility.yul\":11885:11976   */\n      tag_247\n        /* \"#utility.yul\":11934:11975   */\n      tag_248\n        /* \"#utility.yul\":11958:11974   */\n      dup3\n        /* \"#utility.yul\":11934:11975   */\n      tag_117\n      jump\t// in\n    tag_248:\n        /* \"#utility.yul\":11926:11932   */\n      dup5\n        /* \"#utility.yul\":11919:11923   */\n      dup5\n        /* \"#utility.yul\":11913:11924   */\n      sload\n        /* \"#utility.yul\":11885:11976   */\n      tag_114\n      jump\t// in\n    tag_247:\n        /* \"#utility.yul\":11879:11883   */\n      dup3\n        /* \"#utility.yul\":11872:11977   */\n      sstore\n        /* \"#utility.yul\":11790:11983   */\n      pop\n        /* \"#utility.yul\":11714:11983   */\n      pop\n      pop\n      pop\n      jump\t// out\n        /* \"#utility.yul\":11989:12062   */\n    tag_119:\n        /* \"#utility.yul\":12034:12037   */\n      0x00\n        /* \"#utility.yul\":11989:12062   */\n      swap1\n      jump\t// out\n        /* \"#utility.yul\":12068:12257   */\n    tag_120:\n        /* \"#utility.yul\":12145:12177   */\n      tag_251\n      tag_119\n      jump\t// in\n    tag_251:\n        /* \"#utility.yul\":12186:12251   */\n      tag_252\n        /* \"#utility.yul\":12244:12250   */\n      dup2\n        /* \"#utility.yul\":12236:12242   */\n      dup5\n        /* \"#utility.yul\":12230:12234   */\n      dup5\n        /* \"#utility.yul\":12186:12251   */\n      tag_118\n      jump\t// in\n    tag_252:\n        /* \"#utility.yul\":12121:12257   */\n      pop\n        /* \"#utility.yul\":12068:12257   */\n      pop\n      pop\n      jump\t// out\n        /* \"#utility.yul\":12263:12449   */\n    tag_121:\n        /* \"#utility.yul\":12323:12443   */\n    tag_254:\n        /* \"#utility.yul\":12340:12343   */\n      dup2\n        /* \"#utility.yul\":12333:12338   */\n      dup2\n        /* \"#utility.yul\":12330:12344   */\n      lt\n        /* \"#utility.yul\":12323:12443   */\n      iszero\n      tag_256\n      jumpi\n        /* \"#utility.yul\":12394:12433   */\n      tag_257\n        /* \"#utility.yul\":12431:12432   */\n      0x00\n        /* \"#utility.yul\":12424:12429   */\n      dup3\n        /* \"#utility.yul\":12394:12433   */\n      tag_120\n      jump\t// in\n    tag_257:\n        /* \"#utility.yul\":12367:12368   */\n      0x01\n        /* \"#utility.yul\":12360:12365   */\n      dup2\n        /* \"#utility.yul\":12356:12369   */\n      add\n        /* \"#utility.yul\":12347:12369   */\n      swap1\n      pop\n        /* \"#utility.yul\":12323:12443   */\n      jump(tag_254)\n    tag_256:\n        /* \"#utility.yul\":12263:12449   */\n      pop\n      pop\n      jump\t// out\n        /* \"#utility.yul\":12455:12998   */\n    tag_122:\n        /* \"#utility.yul\":12556:12558   */\n      0x1f\n        /* \"#utility.yul\":12551:12554   */\n      dup3\n        /* \"#utility.yul\":12548:12559   */\n      gt\n        /* \"#utility.yul\":12545:12991   */\n      iszero\n      tag_259\n      jumpi\n        /* \"#utility.yul\":12590:12628   */\n      tag_260\n        /* \"#utility.yul\":12622:12627   */\n      dup2\n        /* \"#utility.yul\":12590:12628   */\n      tag_111\n      jump\t// in\n    tag_260:\n        /* \"#utility.yul\":12674:12703   */\n      tag_261\n        /* \"#utility.yul\":12692:12702   */\n      dup5\n        /* \"#utility.yul\":12674:12703   */\n      tag_112\n      jump\t// in\n    tag_261:\n        /* \"#utility.yul\":12664:12672   */\n      dup2\n        /* \"#utility.yul\":12660:12704   */\n      add\n        /* \"#utility.yul\":12857:12859   */\n      0x20\n        /* \"#utility.yul\":12845:12855   */\n      dup6\n        /* \"#utility.yul\":12842:12860   */\n      lt\n        /* \"#utility.yul\":12839:12888   */\n      iszero\n      tag_262\n      jumpi\n        /* \"#utility.yul\":12878:12886   */\n      dup2\n        /* \"#utility.yul\":12863:12886   */\n      swap1\n      pop\n        /* \"#utility.yul\":12839:12888   */\n    tag_262:\n        /* \"#utility.yul\":12901:12981   */\n      tag_263\n        /* \"#utility.yul\":12957:12979   */\n      tag_264\n        /* \"#utility.yul\":12975:12978   */\n      dup6\n        /* \"#utility.yul\":12957:12979   */\n      tag_112\n      jump\t// in\n    tag_264:\n        /* \"#utility.yul\":12947:12955   */\n      dup4\n        /* \"#utility.yul\":12943:12980   */\n      add\n        /* \"#utility.yul\":12930:12941   */\n      dup3\n        /* \"#utility.yul\":12901:12981   */\n      tag_121\n      jump\t// in\n    tag_263:\n        /* \"#utility.yul\":12560:12991   */\n      pop\n      pop\n        /* \"#utility.yul\":12545:12991   */\n    tag_259:\n        /* \"#utility.yul\":12455:12998   */\n      pop\n      pop\n      pop\n      jump\t// out\n        /* \"#utility.yul\":13004:13121   */\n    tag_123:\n        /* \"#utility.yul\":13058:13066   */\n      0x00\n        /* \"#utility.yul\":13108:13113   */\n      dup3\n        /* \"#utility.yul\":13102:13106   */\n      dup3\n        /* \"#utility.yul\":13098:13114   */\n      shr\n        /* \"#utility.yul\":13077:13114   */\n      swap1\n      pop\n        /* \"#utility.yul\":13004:13121   */\n      swap3\n      swap2\n      pop\n      pop\n      jump\t// out\n        /* \"#utility.yul\":13127:13296   */\n    tag_124:\n        /* \"#utility.yul\":13171:13177   */\n      0x00\n        /* \"#utility.yul\":13204:13255   */\n      tag_267\n        /* \"#utility.yul\":13252:13253   */\n      0x00\n        /* \"#utility.yul\":13248:13254   */\n      not\n        /* \"#utility.yul\":13240:13245   */\n      dup5\n        /* \"#utility.yul\":13237:13238   */\n      0x08\n        /* \"#utility.yul\":13233:13246   */\n      mul\n        /* \"#utility.yul\":13204:13255   */\n      tag_123\n      jump\t// in\n    tag_267:\n        /* \"#utility.yul\":13200:13256   */\n      not\n        /* \"#utility.yul\":13285:13289   */\n      dup1\n        /* \"#utility.yul\":13279:13283   */\n      dup4\n        /* \"#utility.yul\":13275:13290   */\n      and\n        /* \"#utility.yul\":13265:13290   */\n      swap2\n      pop\n        /* \"#utility.yul\":13178:13296   */\n      pop\n        /* \"#utility.yul\":13127:13296   */\n      swap3\n      swap2\n      pop\n      pop\n      jump\t// out\n        /* \"#utility.yul\":13301:13596   */\n    tag_125:\n        /* \"#utility.yul\":13377:13381   */\n      0x00\n        /* \"#utility.yul\":13523:13552   */\n      tag_269\n        /* \"#utility.yul\":13548:13551   */\n      dup4\n        /* \"#utility.yul\":13542:13546   */\n      dup4\n        /* \"#utility.yul\":13523:13552   */\n      tag_124\n      jump\t// in\n    tag_269:\n        /* \"#utility.yul\":13515:13552   */\n      swap2\n      pop\n        /* \"#utility.yul\":13585:13588   */\n      dup3\n        /* \"#utility.yul\":13582:13583   */\n      0x02\n        /* \"#utility.yul\":13578:13589   */\n      mul\n        /* \"#utility.yul\":13572:13576   */\n      dup3\n        /* \"#utility.yul\":13569:13590   */\n      or\n        /* \"#utility.yul\":13561:13590   */\n      swap1\n      pop\n        /* \"#utility.yul\":13301:13596   */\n      swap3\n      swap2\n      pop\n      pop\n      jump\t// out\n        /* \"#utility.yul\":13601:14996   */\n    tag_75:\n        /* \"#utility.yul\":13718:13755   */\n      tag_271\n        /* \"#utility.yul\":13751:13754   */\n      dup3\n        /* \"#utility.yul\":13718:13755   */\n      tag_82\n      jump\t// in\n    tag_271:\n        /* \"#utility.yul\":13820:13838   */\n      0xffffffffffffffff\n        /* \"#utility.yul\":13812:13818   */\n      dup2\n        /* \"#utility.yul\":13809:13839   */\n      gt\n        /* \"#utility.yul\":13806:13862   */\n      iszero\n      tag_272\n      jumpi\n        /* \"#utility.yul\":13842:13860   */\n      tag_273\n      tag_96\n      jump\t// in\n    tag_273:\n        /* \"#utility.yul\":13806:13862   */\n    tag_272:\n        /* \"#utility.yul\":13886:13924   */\n      tag_274\n        /* \"#utility.yul\":13918:13922   */\n      dup3\n        /* \"#utility.yul\":13912:13923   */\n      sload\n        /* \"#utility.yul\":13886:13924   */\n      tag_56\n      jump\t// in\n    tag_274:\n        /* \"#utility.yul\":13971:14038   */\n      tag_275\n        /* \"#utility.yul\":14031:14037   */\n      dup3\n        /* \"#utility.yul\":14023:14029   */\n      dup3\n        /* \"#utility.yul\":14017:14021   */\n      dup6\n        /* \"#utility.yul\":13971:14038   */\n      tag_122\n      jump\t// in\n    tag_275:\n        /* \"#utility.yul\":14065:14066   */\n      0x00\n        /* \"#utility.yul\":14089:14093   */\n      0x20\n        /* \"#utility.yul\":14076:14093   */\n      swap1\n      pop\n        /* \"#utility.yul\":14121:14123   */\n      0x1f\n        /* \"#utility.yul\":14113:14119   */\n      dup4\n        /* \"#utility.yul\":14110:14124   */\n      gt\n        /* \"#utility.yul\":14138:14139   */\n      0x01\n        /* \"#utility.yul\":14133:14751   */\n      dup2\n      eq\n      tag_277\n      jumpi\n        /* \"#utility.yul\":14795:14796   */\n      0x00\n        /* \"#utility.yul\":14812:14818   */\n      dup5\n        /* \"#utility.yul\":14809:14886   */\n      iszero\n      tag_278\n      jumpi\n        /* \"#utility.yul\":14861:14870   */\n      dup3\n        /* \"#utility.yul\":14856:14859   */\n      dup8\n        /* \"#utility.yul\":14852:14871   */\n      add\n        /* \"#utility.yul\":14846:14872   */\n      mload\n        /* \"#utility.yul\":14837:14872   */\n      swap1\n      pop\n        /* \"#utility.yul\":14809:14886   */\n    tag_278:\n        /* \"#utility.yul\":14912:14979   */\n      tag_279\n        /* \"#utility.yul\":14972:14978   */\n      dup6\n        /* \"#utility.yul\":14965:14970   */\n      dup3\n        /* \"#utility.yul\":14912:14979   */\n      tag_125\n      jump\t// in\n    tag_279:\n        /* \"#utility.yul\":14906:14910   */\n      dup7\n        /* \"#utility.yul\":14899:14980   */\n      sstore\n        /* \"#utility.yul\":14768:14990   */\n      pop\n        /* \"#utility.yul\":14103:14990   */\n      jump(tag_276)\n        /* \"#utility.yul\":14133:14751   */\n    tag_277:\n        /* \"#utility.yul\":14185:14189   */\n      0x1f\n        /* \"#utility.yul\":14181:14190   */\n      not\n        /* \"#utility.yul\":14173:14179   */\n      dup5\n        /* \"#utility.yul\":14169:14191   */\n      and\n        /* \"#utility.yul\":14219:14256   */\n      tag_280\n        /* \"#utility.yul\":14251:14255   */\n      dup7\n        /* \"#utility.yul\":14219:14256   */\n      tag_111\n      jump\t// in\n    tag_280:\n        /* \"#utility.yul\":14278:14279   */\n      0x00\n        /* \"#utility.yul\":14292:14500   */\n    tag_281:\n        /* \"#utility.yul\":14306:14313   */\n      dup3\n        /* \"#utility.yul\":14303:14304   */\n      dup2\n        /* \"#utility.yul\":14300:14314   */\n      lt\n        /* \"#utility.yul\":14292:14500   */\n      iszero\n      tag_283\n      jumpi\n        /* \"#utility.yul\":14385:14394   */\n      dup5\n        /* \"#utility.yul\":14380:14383   */\n      dup10\n        /* \"#utility.yul\":14376:14395   */\n      add\n        /* \"#utility.yul\":14370:14396   */\n      mload\n        /* \"#utility.yul\":14362:14368   */\n      dup3\n        /* \"#utility.yul\":14355:14397   */\n      sstore\n        /* \"#utility.yul\":14436:14437   */\n      0x01\n        /* \"#utility.yul\":14428:14434   */\n      dup3\n        /* \"#utility.yul\":14424:14438   */\n      add\n        /* \"#utility.yul\":14414:14438   */\n      swap2\n      pop\n        /* \"#utility.yul\":14483:14485   */\n      0x20\n        /* \"#utility.yul\":14472:14481   */\n      dup6\n        /* \"#utility.yul\":14468:14486   */\n      add\n        /* \"#utility.yul\":14455:14486   */\n      swap5\n      pop\n        /* \"#utility.yul\":14329:14333   */\n      0x20\n        /* \"#utility.yul\":14326:14327   */\n      dup2\n        /* \"#utility.yul\":14322:14334   */\n      add\n        /* \"#utility.yul\":14317:14334   */\n      swap1\n      pop\n        /* \"#utility.yul\":14292:14500   */\n      jump(tag_281)\n    tag_283:\n        /* \"#utility.yul\":14528:14534   */\n      dup7\n        /* \"#utility.yul\":14519:14526   */\n      dup4\n        /* \"#utility.yul\":14516:14535   */\n      lt\n        /* \"#utility.yul\":14513:14692   */\n      iszero\n      tag_284\n      jumpi\n        /* \"#utility.yul\":14586:14595   */\n      dup5\n        /* \"#utility.yul\":14581:14584   */\n      dup10\n        /* \"#utility.yul\":14577:14596   */\n      add\n        /* \"#utility.yul\":14571:14597   */\n      mload\n        /* \"#utility.yul\":14629:14677   */\n      tag_285\n        /* \"#utility.yul\":14671:14675   */\n      0x1f\n        /* \"#utility.yul\":14663:14669   */\n      dup10\n        /* \"#utility.yul\":14659:14676   */\n      and\n        /* \"#utility.yul\":14648:14657   */\n      dup3\n        /* \"#utility.yul\":14629:14677   */\n      tag_124\n      jump\t// in\n    tag_285:\n        /* \"#utility.yul\":14621:14627   */\n      dup4\n        /* \"#utility.yul\":14614:14678   */\n      sstore\n        /* \"#utility.yul\":14536:14692   */\n      pop\n        /* \"#utility.yul\":14513:14692   */\n    tag_284:\n        /* \"#utility.yul\":14738:14739   */\n      0x01\n        /* \"#utility.yul\":14734:14735   */\n      0x02\n        /* \"#utility.yul\":14726:14732   */\n      dup9\n        /* \"#utility.yul\":14722:14736   */\n      mul\n        /* \"#utility.yul\":14718:14740   */\n      add\n        /* \"#utility.yul\":14712:14716   */\n      dup9\n        /* \"#utility.yul\":14705:14741   */\n      sstore\n        /* \"#utility.yul\":14140:14751   */\n      pop\n      pop\n      pop\n        /* \"#utility.yul\":14103:14990   */\n    tag_276:\n      pop\n        /* \"#utility.yul\":13693:14996   */\n      pop\n      pop\n      pop\n        /* \"#utility.yul\":13601:14996   */\n      pop\n      pop\n      jump\t// out\n\n    auxdata: 0xa264697066735822122030b450760fee13012720f6db9aec671ba63b0b5fbfc620ac821d87851bccf7dc64736f6c634300081a0033\n}\n",
				"bytecode": {
					"linkReferences": {},
					"object": "6080604052348015600e575f80fd5b50610d828061001c5f395ff3fe608060405234801561000f575f80fd5b5060043610610060575f3560e01c80630121b93f146100645780631ce5e9a614610080578063409e2205146100b1578063a3ec138d146100e2578063a6bd542714610112578063edc550dc14610130575b5f80fd5b61007e6004803603810190610079919061058e565b61014c565b005b61009a6004803603810190610095919061058e565b6102aa565b6040516100a8929190610638565b60405180910390f35b6100cb60048036038101906100c6919061058e565b6103cc565b6040516100d9929190610638565b60405180910390f35b6100fc60048036038101906100f791906106c0565b610480565b6040516101099190610705565b60405180910390f35b61011a61049d565b604051610127919061071e565b60405180910390f35b61014a60048036038101906101459190610863565b6104a8565b005b5f805490508110610192576040517f08c379a0000000000000000000000000000000000000000000000000000000008152600401610189906108f4565b60405180910390fd5b60015f3373ffffffffffffffffffffffffffffffffffffffff1673ffffffffffffffffffffffffffffffffffffffff1681526020019081526020015f205f9054906101000a900460ff161561021c576040517f08c379a00000000000000000000000000000000000000000000000000000000081526004016102139061095c565b60405180910390fd5b5f818154811061022f5761022e61097a565b5b905f5260205f2090600202016001015f81548092919061024e906109d4565b91905055506001805f3373ffffffffffffffffffffffffffffffffffffffff1673ffffffffffffffffffffffffffffffffffffffff1681526020019081526020015f205f6101000a81548160ff02191690831515021790555050565b60605f808054905083106102f3576040517f08c379a00000000000000000000000000000000000000000000000000000000081526004016102ea906108f4565b60405180910390fd5b5f8084815481106103075761030661097a565b5b905f5260205f2090600202016040518060400160405290815f8201805461032d90610a48565b80601f016020809104026020016040519081016040528092919081815260200182805461035990610a48565b80156103a45780601f1061037b576101008083540402835291602001916103a4565b820191905f5260205f20905b81548152906001019060200180831161038757829003601f168201915b505050505081526020016001820154815250509050805f015181602001519250925050915091565b5f81815481106103da575f80fd5b905f5260205f2090600202015f91509050805f0180546103f990610a48565b80601f016020809104026020016040519081016040528092919081815260200182805461042590610a48565b80156104705780601f1061044757610100808354040283529160200191610470565b820191905f5260205f20905b81548152906001019060200180831161045357829003601f168201915b5050505050908060010154905082565b6001602052805f5260405f205f915054906101000a900460ff1681565b5f8080549050905090565b5f8151116104eb576040517f08c379a00000000000000000000000000000000000000000000000000000000081526004016104e290610ac2565b60405180910390fd5b5f60405180604001604052808381526020015f815250908060018154018082558091505060019003905f5260205f2090600202015f909190919091505f820151815f01908161053a9190610c7d565b5060208201518160010155505050565b5f604051905090565b5f80fd5b5f80fd5b5f819050919050565b61056d8161055b565b8114610577575f80fd5b50565b5f8135905061058881610564565b92915050565b5f602082840312156105a3576105a2610553565b5b5f6105b08482850161057a565b91505092915050565b5f81519050919050565b5f82825260208201905092915050565b8281835e5f83830152505050565b5f601f19601f8301169050919050565b5f6105fb826105b9565b61060581856105c3565b93506106158185602086016105d3565b61061e816105e1565b840191505092915050565b6106328161055b565b82525050565b5f6040820190508181035f83015261065081856105f1565b905061065f6020830184610629565b9392505050565b5f73ffffffffffffffffffffffffffffffffffffffff82169050919050565b5f61068f82610666565b9050919050565b61069f81610685565b81146106a9575f80fd5b50565b5f813590506106ba81610696565b92915050565b5f602082840312156106d5576106d4610553565b5b5f6106e2848285016106ac565b91505092915050565b5f8115159050919050565b6106ff816106eb565b82525050565b5f6020820190506107185f8301846106f6565b92915050565b5f6020820190506107315f830184610629565b92915050565b5f80fd5b5f80fd5b7f4e487b71000000000000000000000000000000000000000000000000000000005f52604160045260245ffd5b610775826105e1565b810181811067ffffffffffffffff821117156107945761079361073f565b5b80604052505050565b5f6107a661054a565b90506107b2828261076c565b919050565b5f67ffffffffffffffff8211156107d1576107d061073f565b5b6107da826105e1565b9050602081019050919050565b828183375f83830152505050565b5f610807610802846107b7565b61079d565b9050828152602081018484840111156108235761082261073b565b5b61082e8482856107e7565b509392505050565b5f82601f83011261084a57610849610737565b5b813561085a8482602086016107f5565b91505092915050565b5f6020828403121561087857610877610553565b5b5f82013567ffffffffffffffff81111561089557610894610557565b5b6108a184828501610836565b91505092915050565b7f496e76616c6964206f7074696f6e20696e6465780000000000000000000000005f82015250565b5f6108de6014836105c3565b91506108e9826108aa565b602082019050919050565b5f6020820190508181035f83015261090b816108d2565b9050919050565b7f416c726561647920766f746564000000000000000000000000000000000000005f82015250565b5f610946600d836105c3565b915061095182610912565b602082019050919050565b5f6020820190508181035f8301526109738161093a565b9050919050565b7f4e487b71000000000000000000000000000000000000000000000000000000005f52603260045260245ffd5b7f4e487b71000000000000000000000000000000000000000000000000000000005f52601160045260245ffd5b5f6109de8261055b565b91507fffffffffffffffffffffffffffffffffffffffffffffffffffffffffffffffff8203610a1057610a0f6109a7565b5b600182019050919050565b7f4e487b71000000000000000000000000000000000000000000000000000000005f52602260045260245ffd5b5f6002820490506001821680610a5f57607f821691505b602082108103610a7257610a71610a1b565b5b50919050565b7f4f7074696f6e206e616d652063616e6e6f7420626520656d70747900000000005f82015250565b5f610aac601b836105c3565b9150610ab782610a78565b602082019050919050565b5f6020820190508181035f830152610ad981610aa0565b9050919050565b5f819050815f5260205f209050919050565b5f6020601f8301049050919050565b5f82821b905092915050565b5f60088302610b3c7fffffffffffffffffffffffffffffffffffffffffffffffffffffffffffffffff82610b01565b610b468683610b01565b95508019841693508086168417925050509392505050565b5f819050919050565b5f610b81610b7c610b778461055b565b610b5e565b61055b565b9050919050565b5f819050919050565b610b9a83610b67565b610bae610ba682610b88565b848454610b0d565b825550505050565b5f90565b610bc2610bb6565b610bcd818484610b91565b505050565b5b81811015610bf057610be55f82610bba565b600181019050610bd3565b5050565b601f821115610c3557610c0681610ae0565b610c0f84610af2565b81016020851015610c1e578190505b610c32610c2a85610af2565b830182610bd2565b50505b505050565b5f82821c905092915050565b5f610c555f1984600802610c3a565b1980831691505092915050565b5f610c6d8383610c46565b9150826002028217905092915050565b610c86826105b9565b67ffffffffffffffff811115610c9f57610c9e61073f565b5b610ca98254610a48565b610cb4828285610bf4565b5f60209050601f831160018114610ce5575f8415610cd3578287015190505b610cdd8582610c62565b865550610d44565b601f198416610cf386610ae0565b5f5b82811015610d1a57848901518255600182019150602085019450602081019050610cf5565b86831015610d375784890151610d33601f891682610c46565b8355505b6001600288020188555050505b50505050505056fea264697066735822122030b450760fee13012720f6db9aec671ba63b0b5fbfc620ac821d87851bccf7dc64736f6c634300081a0033",
					"opcodes": "PUSH1 0x80 PUSH1 0x40 MSTORE CALLVALUE DUP1 ISZERO PUSH1 0xE JUMPI PUSH0 DUP1 REVERT JUMPDEST POP PUSH2 0xD82 DUP1 PUSH2 0x1C PUSH0 CODECOPY PUSH0 RETURN INVALID PUSH1 0x80 PUSH1 0x40 MSTORE CALLVALUE DUP1 ISZERO PUSH2 0xF JUMPI PUSH0 DUP1 REVERT JUMPDEST POP PUSH1 0x4 CALLDATASIZE LT PUSH2 0x60 JUMPI PUSH0 CALLDATALOAD PUSH1 0xE0 SHR DUP1 PUSH4 0x121B93F EQ PUSH2 0x64 JUMPI DUP1 PUSH4 0x1CE5E9A6 EQ PUSH2 0x80 JUMPI DUP1 PUSH4 0x409E2205 EQ PUSH2 0xB1 JUMPI DUP1 PUSH4 0xA3EC138D EQ PUSH2 0xE2 JUMPI DUP1 PUSH4 0xA6BD5427 EQ PUSH2 0x112 JUMPI DUP1 PUSH4 0xEDC550DC EQ PUSH2 0x130 JUMPI JUMPDEST PUSH0 DUP1 REVERT JUMPDEST PUSH2 0x7E PUSH1 0x4 DUP1 CALLDATASIZE SUB DUP2 ADD SWAP1 PUSH2 0x79 SWAP2 SWAP1 PUSH2 0x58E JUMP JUMPDEST PUSH2 0x14C JUMP JUMPDEST STOP JUMPDEST PUSH2 0x9A PUSH1 0x4 DUP1 CALLDATASIZE SUB DUP2 ADD SWAP1 PUSH2 0x95 SWAP2 SWAP1 PUSH2 0x58E JUMP JUMPDEST PUSH2 0x2AA JUMP JUMPDEST PUSH1 0x40 MLOAD PUSH2 0xA8 SWAP3 SWAP2 SWAP1 PUSH2 0x638 JUMP JUMPDEST PUSH1 0x40 MLOAD DUP1 SWAP2 SUB SWAP1 RETURN JUMPDEST PUSH2 0xCB PUSH1 0x4 DUP1 CALLDATASIZE SUB DUP2 ADD SWAP1 PUSH2 0xC6 SWAP2 SWAP1 PUSH2 0x58E JUMP JUMPDEST PUSH2 0x3CC JUMP JUMPDEST PUSH1 0x40 MLOAD PUSH2 0xD9 SWAP3 SWAP2 SWAP1 PUSH2 0x638 JUMP JUMPDEST PUSH1 0x40 MLOAD DUP1 SWAP2 SUB SWAP1 RETURN JUMPDEST PUSH2 0xFC PUSH1 0x4 DUP1 CALLDATASIZE SUB DUP2 ADD SWAP1 PUSH2 0xF7 SWAP2 SWAP1 PUSH2 0x6C0 JUMP JUMPDEST PUSH2 0x480 JUMP JUMPDEST PUSH1 0x40 MLOAD PUSH2 0x109 SWAP2 SWAP1 PUSH2 0x705 JUMP JUMPDEST PUSH1 0x40 MLOAD DUP1 SWAP2 SUB SWAP1 RETURN JUMPDEST PUSH2 0x11A PUSH2 0x49D JUMP JUMPDEST PUSH1 0x40 MLOAD PUSH2 0x127 SWAP2 SWAP1 PUSH2 0x71E JUMP JUMPDEST PUSH1 0x40 MLOAD DUP1 SWAP2 SUB SWAP1 RETURN JUMPDEST PUSH2 0x14A PUSH1 0x4 DUP1 CALLDATASIZE SUB DUP2 ADD SWAP1 PUSH2 0x145 SWAP2 SWAP1 PUSH2 0x863 JUMP JUMPDEST PUSH2 0x4A8 JUMP JUMPDEST STOP JUMPDEST PUSH0 DUP1 SLOAD SWAP1 POP DUP2 LT PUSH2 0x192 JUMPI PUSH1 0x40 MLOAD PUSH32 0x8C379A000000000000000000000000000000000000000000000000000000000 DUP2 MSTORE PUSH1 0x4 ADD PUSH2 0x189 SWAP1 PUSH2 0x8F4 JUMP JUMPDEST PUSH1 0x40 MLOAD DUP1 SWAP2 SUB SWAP1 REVERT JUMPDEST PUSH1 0x1 PUSH0 CALLER PUSH20 0xFFFFFFFFFFFFFFFFFFFFFFFFFFFFFFFFFFFFFFFF AND PUSH20 0xFFFFFFFFFFFFFFFFFFFFFFFFFFFFFFFFFFFFFFFF AND DUP2 MSTORE PUSH1 0x20 ADD SWAP1 DUP2 MSTORE PUSH1 0x20 ADD PUSH0 KECCAK256 PUSH0 SWAP1 SLOAD SWAP1 PUSH2 0x100 EXP SWAP1 DIV PUSH1 0xFF AND ISZERO PUSH2 0x21C JUMPI PUSH1 0x40 MLOAD PUSH32 0x8C379A000000000000000000000000000000000000000000000000000000000 DUP2 MSTORE PUSH1 0x4 ADD PUSH2 0x213 SWAP1 PUSH2 0x95C JUMP JUMPDEST PUSH1 0x40 MLOAD DUP1 SWAP2 SUB SWAP1 REVERT JUMPDEST PUSH0 DUP2 DUP2 SLOAD DUP2 LT PUSH2 0x22F JUMPI PUSH2 0x22E PUSH2 0x97A JUMP JUMPDEST JUMPDEST SWAP1 PUSH0 MSTORE PUSH1 0x20 PUSH0 KECCAK256 SWAP1 PUSH1 0x2 MUL ADD PUSH1 0x1 ADD PUSH0 DUP2 SLOAD DUP1 SWAP3 SWAP2 SWAP1 PUSH2 0x24E SWAP1 PUSH2 0x9D4 JUMP JUMPDEST SWAP2 SWAP1 POP SSTORE POP PUSH1 0x1 DUP1 PUSH0 CALLER PUSH20 0xFFFFFFFFFFFFFFFFFFFFFFFFFFFFFFFFFFFFFFFF AND PUSH20 0xFFFFFFFFFFFFFFFFFFFFFFFFFFFFFFFFFFFFFFFF AND DUP2 MSTORE PUSH1 0x20 ADD SWAP1 DUP2 MSTORE PUSH1 0x20 ADD PUSH0 KECCAK256 PUSH0 PUSH2 0x100 EXP DUP2 SLOAD DUP2 PUSH1 0xFF MUL NOT AND SWAP1 DUP4 ISZERO ISZERO MUL OR SWAP1 SSTORE POP POP JUMP JUMPDEST PUSH1 0x60 PUSH0 DUP1 DUP1 SLOAD SWAP1 POP DUP4 LT PUSH2 0x2F3 JUMPI PUSH1 0x40 MLOAD PUSH32 0x8C379A000000000000000000000000000000000000000000000000000000000 DUP2 MSTORE PUSH1 0x4 ADD PUSH2 0x2EA SWAP1 PUSH2 0x8F4 JUMP JUMPDEST PUSH1 0x40 MLOAD DUP1 SWAP2 SUB SWAP1 REVERT JUMPDEST PUSH0 DUP1 DUP5 DUP2 SLOAD DUP2 LT PUSH2 0x307 JUMPI PUSH2 0x306 PUSH2 0x97A JUMP JUMPDEST JUMPDEST SWAP1 PUSH0 MSTORE PUSH1 0x20 PUSH0 KECCAK256 SWAP1 PUSH1 0x2 MUL ADD PUSH1 0x40 MLOAD DUP1 PUSH1 0x40 ADD PUSH1 0x40 MSTORE SWAP1 DUP2 PUSH0 DUP3 ADD DUP1 SLOAD PUSH2 0x32D SWAP1 PUSH2 0xA48 JUMP JUMPDEST DUP1 PUSH1 0x1F ADD PUSH1 0x20 DUP1 SWAP2 DIV MUL PUSH1 0x20 ADD PUSH1 0x40 MLOAD SWAP1 DUP2 ADD PUSH1 0x40 MSTORE DUP1 SWAP3 SWAP2 SWAP1 DUP2 DUP2 MSTORE PUSH1 0x20 ADD DUP3 DUP1 SLOAD PUSH2 0x359 SWAP1 PUSH2 0xA48 JUMP JUMPDEST DUP1 ISZERO PUSH2 0x3A4 JUMPI DUP1 PUSH1 0x1F LT PUSH2 0x37B JUMPI PUSH2 0x100 DUP1 DUP4 SLOAD DIV MUL DUP4 MSTORE SWAP2 PUSH1 0x20 ADD SWAP2 PUSH2 0x3A4 JUMP JUMPDEST DUP3 ADD SWAP2 SWAP1 PUSH0 MSTORE PUSH1 0x20 PUSH0 KECCAK256 SWAP1 JUMPDEST DUP2 SLOAD DUP2 MSTORE SWAP1 PUSH1 0x1 ADD SWAP1 PUSH1 0x20 ADD DUP1 DUP4 GT PUSH2 0x387 JUMPI DUP3 SWAP1 SUB PUSH1 0x1F AND DUP3 ADD SWAP2 JUMPDEST POP POP POP POP POP DUP2 MSTORE PUSH1 0x20 ADD PUSH1 0x1 DUP3 ADD SLOAD DUP2 MSTORE POP POP SWAP1 POP DUP1 PUSH0 ADD MLOAD DUP2 PUSH1 0x20 ADD MLOAD SWAP3 POP SWAP3 POP POP SWAP2 POP SWAP2 JUMP JUMPDEST PUSH0 DUP2 DUP2 SLOAD DUP2 LT PUSH2 0x3DA JUMPI PUSH0 DUP1 REVERT JUMPDEST SWAP1 PUSH0 MSTORE PUSH1 0x20 PUSH0 KECCAK256 SWAP1 PUSH1 0x2 MUL ADD PUSH0 SWAP2 POP SWAP1 POP DUP1 PUSH0 ADD DUP1 SLOAD PUSH2 0x3F9 SWAP1 PUSH2 0xA48 JUMP JUMPDEST DUP1 PUSH1 0x1F ADD PUSH1 0x20 DUP1 SWAP2 DIV MUL PUSH1 0x20 ADD PUSH1 0x40 MLOAD SWAP1 DUP2 ADD PUSH1 0x40 MSTORE DUP1 SWAP3 SWAP2 SWAP1 DUP2 DUP2 MSTORE PUSH1 0x20 ADD DUP3 DUP1 SLOAD PUSH2 0x425 SWAP1 PUSH2 0xA48 JUMP JUMPDEST DUP1 ISZERO PUSH2 0x470 JUMPI DUP1 PUSH1 0x1F LT PUSH2 0x447 JUMPI PUSH2 0x100 DUP1 DUP4 SLOAD DIV MUL DUP4 MSTORE SWAP2 PUSH1 0x20 ADD SWAP2 PUSH2 0x470 JUMP JUMPDEST DUP3 ADD SWAP2 SWAP1 PUSH0 MSTORE PUSH1 0x20 PUSH0 KECCAK256 SWAP1 JUMPDEST DUP2 SLOAD DUP2 MSTORE SWAP1 PUSH1 0x1 ADD SWAP1 PUSH1 0x20 ADD DUP1 DUP4 GT PUSH2 0x453 JUMPI DUP3 SWAP1 SUB PUSH1 0x1F AND DUP3 ADD SWAP2 JUMPDEST POP POP POP POP POP SWAP1 DUP1 PUSH1 0x1 ADD SLOAD SWAP1 POP DUP3 JUMP JUMPDEST PUSH1 0x1 PUSH1 0x20 MSTORE DUP1 PUSH0 MSTORE PUSH1 0x40 PUSH0 KECCAK256 PUSH0 SWAP2 POP SLOAD SWAP1 PUSH2 0x100 EXP SWAP1 DIV PUSH1 0xFF AND DUP2 JUMP JUMPDEST PUSH0 DUP1 DUP1 SLOAD SWAP1 POP SWAP1 POP SWAP1 JUMP JUMPDEST PUSH0 DUP2 MLOAD GT PUSH2 0x4EB JUMPI PUSH1 0x40 MLOAD PUSH32 0x8C379A000000000000000000000000000000000000000000000000000000000 DUP2 MSTORE PUSH1 0x4 ADD PUSH2 0x4E2 SWAP1 PUSH2 0xAC2 JUMP JUMPDEST PUSH1 0x40 MLOAD DUP1 SWAP2 SUB SWAP1 REVERT JUMPDEST PUSH0 PUSH1 0x40 MLOAD DUP1 PUSH1 0x40 ADD PUSH1 0x40 MSTORE DUP1 DUP4 DUP2 MSTORE PUSH1 0x20 ADD PUSH0 DUP2 MSTORE POP SWAP1 DUP1 PUSH1 0x1 DUP2 SLOAD ADD DUP1 DUP3 SSTORE DUP1 SWAP2 POP POP PUSH1 0x1 SWAP1 SUB SWAP1 PUSH0 MSTORE PUSH1 0x20 PUSH0 KECCAK256 SWAP1 PUSH1 0x2 MUL ADD PUSH0 SWAP1 SWAP2 SWAP1 SWAP2 SWAP1 SWAP2 POP PUSH0 DUP3 ADD MLOAD DUP2 PUSH0 ADD SWAP1 DUP2 PUSH2 0x53A SWAP2 SWAP1 PUSH2 0xC7D JUMP JUMPDEST POP PUSH1 0x20 DUP3 ADD MLOAD DUP2 PUSH1 0x1 ADD SSTORE POP POP POP JUMP JUMPDEST PUSH0 PUSH1 0x40 MLOAD SWAP1 POP SWAP1 JUMP JUMPDEST PUSH0 DUP1 REVERT JUMPDEST PUSH0 DUP1 REVERT JUMPDEST PUSH0 DUP2 SWAP1 POP SWAP2 SWAP1 POP JUMP JUMPDEST PUSH2 0x56D DUP2 PUSH2 0x55B JUMP JUMPDEST DUP2 EQ PUSH2 0x577 JUMPI PUSH0 DUP1 REVERT JUMPDEST POP JUMP JUMPDEST PUSH0 DUP2 CALLDATALOAD SWAP1 POP PUSH2 0x588 DUP2 PUSH2 0x564 JUMP JUMPDEST SWAP3 SWAP2 POP POP JUMP JUMPDEST PUSH0 PUSH1 0x20 DUP3 DUP5 SUB SLT ISZERO PUSH2 0x5A3 JUMPI PUSH2 0x5A2 PUSH2 0x553 JUMP JUMPDEST JUMPDEST PUSH0 PUSH2 0x5B0 DUP5 DUP3 DUP6 ADD PUSH2 0x57A JUMP JUMPDEST SWAP2 POP POP SWAP3 SWAP2 POP POP JUMP JUMPDEST PUSH0 DUP2 MLOAD SWAP1 POP SWAP2 SWAP1 POP JUMP JUMPDEST PUSH0 DUP3 DUP3 MSTORE PUSH1 0x20 DUP3 ADD SWAP1 POP SWAP3 SWAP2 POP POP JUMP JUMPDEST DUP3 DUP2 DUP4 MCOPY PUSH0 DUP4 DUP4 ADD MSTORE POP POP POP JUMP JUMPDEST PUSH0 PUSH1 0x1F NOT PUSH1 0x1F DUP4 ADD AND SWAP1 POP SWAP2 SWAP1 POP JUMP JUMPDEST PUSH0 PUSH2 0x5FB DUP3 PUSH2 0x5B9 JUMP JUMPDEST PUSH2 0x605 DUP2 DUP6 PUSH2 0x5C3 JUMP JUMPDEST SWAP4 POP PUSH2 0x615 DUP2 DUP6 PUSH1 0x20 DUP7 ADD PUSH2 0x5D3 JUMP JUMPDEST PUSH2 0x61E DUP2 PUSH2 0x5E1 JUMP JUMPDEST DUP5 ADD SWAP2 POP POP SWAP3 SWAP2 POP POP JUMP JUMPDEST PUSH2 0x632 DUP2 PUSH2 0x55B JUMP JUMPDEST DUP3 MSTORE POP POP JUMP JUMPDEST PUSH0 PUSH1 0x40 DUP3 ADD SWAP1 POP DUP2 DUP2 SUB PUSH0 DUP4 ADD MSTORE PUSH2 0x650 DUP2 DUP6 PUSH2 0x5F1 JUMP JUMPDEST SWAP1 POP PUSH2 0x65F PUSH1 0x20 DUP4 ADD DUP5 PUSH2 0x629 JUMP JUMPDEST SWAP4 SWAP3 POP POP POP JUMP JUMPDEST PUSH0 PUSH20 0xFFFFFFFFFFFFFFFFFFFFFFFFFFFFFFFFFFFFFFFF DUP3 AND SWAP1 POP SWAP2 SWAP1 POP JUMP JUMPDEST PUSH0 PUSH2 0x68F DUP3 PUSH2 0x666 JUMP JUMPDEST SWAP1 POP SWAP2 SWAP1 POP JUMP JUMPDEST PUSH2 0x69F DUP2 PUSH2 0x685 JUMP JUMPDEST DUP2 EQ PUSH2 0x6A9 JUMPI PUSH0 DUP1 REVERT JUMPDEST POP JUMP JUMPDEST PUSH0 DUP2 CALLDATALOAD SWAP1 POP PUSH2 0x6BA DUP2 PUSH2 0x696 JUMP JUMPDEST SWAP3 SWAP2 POP POP JUMP JUMPDEST PUSH0 PUSH1 0x20 DUP3 DUP5 SUB SLT ISZERO PUSH2 0x6D5 JUMPI PUSH2 0x6D4 PUSH2 0x553 JUMP JUMPDEST JUMPDEST PUSH0 PUSH2 0x6E2 DUP5 DUP3 DUP6 ADD PUSH2 0x6AC JUMP JUMPDEST SWAP2 POP POP SWAP3 SWAP2 POP POP JUMP JUMPDEST PUSH0 DUP2 ISZERO ISZERO SWAP1 POP SWAP2 SWAP1 POP JUMP JUMPDEST PUSH2 0x6FF DUP2 PUSH2 0x6EB JUMP JUMPDEST DUP3 MSTORE POP POP JUMP JUMPDEST PUSH0 PUSH1 0x20 DUP3 ADD SWAP1 POP PUSH2 0x718 PUSH0 DUP4 ADD DUP5 PUSH2 0x6F6 JUMP JUMPDEST SWAP3 SWAP2 POP POP JUMP JUMPDEST PUSH0 PUSH1 0x20 DUP3 ADD SWAP1 POP PUSH2 0x731 PUSH0 DUP4 ADD DUP5 PUSH2 0x629 JUMP JUMPDEST SWAP3 SWAP2 POP POP JUMP JUMPDEST PUSH0 DUP1 REVERT JUMPDEST PUSH0 DUP1 REVERT JUMPDEST PUSH32 0x4E487B7100000000000000000000000000000000000000000000000000000000 PUSH0 MSTORE PUSH1 0x41 PUSH1 0x4 MSTORE PUSH1 0x24 PUSH0 REVERT JUMPDEST PUSH2 0x775 DUP3 PUSH2 0x5E1 JUMP JUMPDEST DUP2 ADD DUP2 DUP2 LT PUSH8 0xFFFFFFFFFFFFFFFF DUP3 GT OR ISZERO PUSH2 0x794 JUMPI PUSH2 0x793 PUSH2 0x73F JUMP JUMPDEST JUMPDEST DUP1 PUSH1 0x40 MSTORE POP POP POP JUMP JUMPDEST PUSH0 PUSH2 0x7A6 PUSH2 0x54A JUMP JUMPDEST SWAP1 POP PUSH2 0x7B2 DUP3 DUP3 PUSH2 0x76C JUMP JUMPDEST SWAP2 SWAP1 POP JUMP JUMPDEST PUSH0 PUSH8 0xFFFFFFFFFFFFFFFF DUP3 GT ISZERO PUSH2 0x7D1 JUMPI PUSH2 0x7D0 PUSH2 0x73F JUMP JUMPDEST JUMPDEST PUSH2 0x7DA DUP3 PUSH2 0x5E1 JUMP JUMPDEST SWAP1 POP PUSH1 0x20 DUP2 ADD SWAP1 POP SWAP2 SWAP1 POP JUMP JUMPDEST DUP3 DUP2 DUP4 CALLDATACOPY PUSH0 DUP4 DUP4 ADD MSTORE POP POP POP JUMP JUMPDEST PUSH0 PUSH2 0x807 PUSH2 0x802 DUP5 PUSH2 0x7B7 JUMP JUMPDEST PUSH2 0x79D JUMP JUMPDEST SWAP1 POP DUP3 DUP2 MSTORE PUSH1 0x20 DUP2 ADD DUP5 DUP5 DUP5 ADD GT ISZERO PUSH2 0x823 JUMPI PUSH2 0x822 PUSH2 0x73B JUMP JUMPDEST JUMPDEST PUSH2 0x82E DUP5 DUP3 DUP6 PUSH2 0x7E7 JUMP JUMPDEST POP SWAP4 SWAP3 POP POP POP JUMP JUMPDEST PUSH0 DUP3 PUSH1 0x1F DUP4 ADD SLT PUSH2 0x84A JUMPI PUSH2 0x849 PUSH2 0x737 JUMP JUMPDEST JUMPDEST DUP2 CALLDATALOAD PUSH2 0x85A DUP5 DUP3 PUSH1 0x20 DUP7 ADD PUSH2 0x7F5 JUMP JUMPDEST SWAP2 POP POP SWAP3 SWAP2 POP POP JUMP JUMPDEST PUSH0 PUSH1 0x20 DUP3 DUP5 SUB SLT ISZERO PUSH2 0x878 JUMPI PUSH2 0x877 PUSH2 0x553 JUMP JUMPDEST JUMPDEST PUSH0 DUP3 ADD CALLDATALOAD PUSH8 0xFFFFFFFFFFFFFFFF DUP2 GT ISZERO PUSH2 0x895 JUMPI PUSH2 0x894 PUSH2 0x557 JUMP JUMPDEST JUMPDEST PUSH2 0x8A1 DUP5 DUP3 DUP6 ADD PUSH2 0x836 JUMP JUMPDEST SWAP2 POP POP SWAP3 SWAP2 POP POP JUMP JUMPDEST PUSH32 0x496E76616C6964206F7074696F6E20696E646578000000000000000000000000 PUSH0 DUP3 ADD MSTORE POP JUMP JUMPDEST PUSH0 PUSH2 0x8DE PUSH1 0x14 DUP4 PUSH2 0x5C3 JUMP JUMPDEST SWAP2 POP PUSH2 0x8E9 DUP3 PUSH2 0x8AA JUMP JUMPDEST PUSH1 0x20 DUP3 ADD SWAP1 POP SWAP2 SWAP1 POP JUMP JUMPDEST PUSH0 PUSH1 0x20 DUP3 ADD SWAP1 POP DUP2 DUP2 SUB PUSH0 DUP4 ADD MSTORE PUSH2 0x90B DUP2 PUSH2 0x8D2 JUMP JUMPDEST SWAP1 POP SWAP2 SWAP1 POP JUMP JUMPDEST PUSH32 0x416C726561647920766F74656400000000000000000000000000000000000000 PUSH0 DUP3 ADD MSTORE POP JUMP JUMPDEST PUSH0 PUSH2 0x946 PUSH1 0xD DUP4 PUSH2 0x5C3 JUMP JUMPDEST SWAP2 POP PUSH2 0x951 DUP3 PUSH2 0x912 JUMP JUMPDEST PUSH1 0x20 DUP3 ADD SWAP1 POP SWAP2 SWAP1 POP JUMP JUMPDEST PUSH0 PUSH1 0x20 DUP3 ADD SWAP1 POP DUP2 DUP2 SUB PUSH0 DUP4 ADD MSTORE PUSH2 0x973 DUP2 PUSH2 0x93A JUMP JUMPDEST SWAP1 POP SWAP2 SWAP1 POP JUMP JUMPDEST PUSH32 0x4E487B7100000000000000000000000000000000000000000000000000000000 PUSH0 MSTORE PUSH1 0x32 PUSH1 0x4 MSTORE PUSH1 0x24 PUSH0 REVERT JUMPDEST PUSH32 0x4E487B7100000000000000000000000000000000000000000000000000000000 PUSH0 MSTORE PUSH1 0x11 PUSH1 0x4 MSTORE PUSH1 0x24 PUSH0 REVERT JUMPDEST PUSH0 PUSH2 0x9DE DUP3 PUSH2 0x55B JUMP JUMPDEST SWAP2 POP PUSH32 0xFFFFFFFFFFFFFFFFFFFFFFFFFFFFFFFFFFFFFFFFFFFFFFFFFFFFFFFFFFFFFFFF DUP3 SUB PUSH2 0xA10 JUMPI PUSH2 0xA0F PUSH2 0x9A7 JUMP JUMPDEST JUMPDEST PUSH1 0x1 DUP3 ADD SWAP1 POP SWAP2 SWAP1 POP JUMP JUMPDEST PUSH32 0x4E487B7100000000000000000000000000000000000000000000000000000000 PUSH0 MSTORE PUSH1 0x22 PUSH1 0x4 MSTORE PUSH1 0x24 PUSH0 REVERT JUMPDEST PUSH0 PUSH1 0x2 DUP3 DIV SWAP1 POP PUSH1 0x1 DUP3 AND DUP1 PUSH2 0xA5F JUMPI PUSH1 0x7F DUP3 AND SWAP2 POP JUMPDEST PUSH1 0x20 DUP3 LT DUP2 SUB PUSH2 0xA72 JUMPI PUSH2 0xA71 PUSH2 0xA1B JUMP JUMPDEST JUMPDEST POP SWAP2 SWAP1 POP JUMP JUMPDEST PUSH32 0x4F7074696F6E206E616D652063616E6E6F7420626520656D7074790000000000 PUSH0 DUP3 ADD MSTORE POP JUMP JUMPDEST PUSH0 PUSH2 0xAAC PUSH1 0x1B DUP4 PUSH2 0x5C3 JUMP JUMPDEST SWAP2 POP PUSH2 0xAB7 DUP3 PUSH2 0xA78 JUMP JUMPDEST PUSH1 0x20 DUP3 ADD SWAP1 POP SWAP2 SWAP1 POP JUMP JUMPDEST PUSH0 PUSH1 0x20 DUP3 ADD SWAP1 POP DUP2 DUP2 SUB PUSH0 DUP4 ADD MSTORE PUSH2 0xAD9 DUP2 PUSH2 0xAA0 JUMP JUMPDEST SWAP1 POP SWAP2 SWAP1 POP JUMP JUMPDEST PUSH0 DUP2 SWAP1 POP DUP2 PUSH0 MSTORE PUSH1 0x20 PUSH0 KECCAK256 SWAP1 POP SWAP2 SWAP1 POP JUMP JUMPDEST PUSH0 PUSH1 0x20 PUSH1 0x1F DUP4 ADD DIV SWAP1 POP SWAP2 SWAP1 POP JUMP JUMPDEST PUSH0 DUP3 DUP3 SHL SWAP1 POP SWAP3 SWAP2 POP POP JUMP JUMPDEST PUSH0 PUSH1 0x8 DUP4 MUL PUSH2 0xB3C PUSH32 0xFFFFFFFFFFFFFFFFFFFFFFFFFFFFFFFFFFFFFFFFFFFFFFFFFFFFFFFFFFFFFFFF DUP3 PUSH2 0xB01 JUMP JUMPDEST PUSH2 0xB46 DUP7 DUP4 PUSH2 0xB01 JUMP JUMPDEST SWAP6 POP DUP1 NOT DUP5 AND SWAP4 POP DUP1 DUP7 AND DUP5 OR SWAP3 POP POP POP SWAP4 SWAP3 POP POP POP JUMP JUMPDEST PUSH0 DUP2 SWAP1 POP SWAP2 SWAP1 POP JUMP JUMPDEST PUSH0 PUSH2 0xB81 PUSH2 0xB7C PUSH2 0xB77 DUP5 PUSH2 0x55B JUMP JUMPDEST PUSH2 0xB5E JUMP JUMPDEST PUSH2 0x55B JUMP JUMPDEST SWAP1 POP SWAP2 SWAP1 POP JUMP JUMPDEST PUSH0 DUP2 SWAP1 POP SWAP2 SWAP1 POP JUMP JUMPDEST PUSH2 0xB9A DUP4 PUSH2 0xB67 JUMP JUMPDEST PUSH2 0xBAE PUSH2 0xBA6 DUP3 PUSH2 0xB88 JUMP JUMPDEST DUP5 DUP5 SLOAD PUSH2 0xB0D JUMP JUMPDEST DUP3 SSTORE POP POP POP POP JUMP JUMPDEST PUSH0 SWAP1 JUMP JUMPDEST PUSH2 0xBC2 PUSH2 0xBB6 JUMP JUMPDEST PUSH2 0xBCD DUP2 DUP5 DUP5 PUSH2 0xB91 JUMP JUMPDEST POP POP POP JUMP JUMPDEST JUMPDEST DUP2 DUP2 LT ISZERO PUSH2 0xBF0 JUMPI PUSH2 0xBE5 PUSH0 DUP3 PUSH2 0xBBA JUMP JUMPDEST PUSH1 0x1 DUP2 ADD SWAP1 POP PUSH2 0xBD3 JUMP JUMPDEST POP POP JUMP JUMPDEST PUSH1 0x1F DUP3 GT ISZERO PUSH2 0xC35 JUMPI PUSH2 0xC06 DUP2 PUSH2 0xAE0 JUMP JUMPDEST PUSH2 0xC0F DUP5 PUSH2 0xAF2 JUMP JUMPDEST DUP2 ADD PUSH1 0x20 DUP6 LT ISZERO PUSH2 0xC1E JUMPI DUP2 SWAP1 POP JUMPDEST PUSH2 0xC32 PUSH2 0xC2A DUP6 PUSH2 0xAF2 JUMP JUMPDEST DUP4 ADD DUP3 PUSH2 0xBD2 JUMP JUMPDEST POP POP JUMPDEST POP POP POP JUMP JUMPDEST PUSH0 DUP3 DUP3 SHR SWAP1 POP SWAP3 SWAP2 POP POP JUMP JUMPDEST PUSH0 PUSH2 0xC55 PUSH0 NOT DUP5 PUSH1 0x8 MUL PUSH2 0xC3A JUMP JUMPDEST NOT DUP1 DUP4 AND SWAP2 POP POP SWAP3 SWAP2 POP POP JUMP JUMPDEST PUSH0 PUSH2 0xC6D DUP4 DUP4 PUSH2 0xC46 JUMP JUMPDEST SWAP2 POP DUP3 PUSH1 0x2 MUL DUP3 OR SWAP1 POP SWAP3 SWAP2 POP POP JUMP JUMPDEST PUSH2 0xC86 DUP3 PUSH2 0x5B9 JUMP JUMPDEST PUSH8 0xFFFFFFFFFFFFFFFF DUP2 GT ISZERO PUSH2 0xC9F JUMPI PUSH2 0xC9E PUSH2 0x73F JUMP JUMPDEST JUMPDEST PUSH2 0xCA9 DUP3 SLOAD PUSH2 0xA48 JUMP JUMPDEST PUSH2 0xCB4 DUP3 DUP3 DUP6 PUSH2 0xBF4 JUMP JUMPDEST PUSH0 PUSH1 0x20 SWAP1 POP PUSH1 0x1F DUP4 GT PUSH1 0x1 DUP2 EQ PUSH2 0xCE5 JUMPI PUSH0 DUP5 ISZERO PUSH2 0xCD3 JUMPI DUP3 DUP8 ADD MLOAD SWAP1 POP JUMPDEST PUSH2 0xCDD DUP6 DUP3 PUSH2 0xC62 JUMP JUMPDEST DUP7 SSTORE POP PUSH2 0xD44 JUMP JUMPDEST PUSH1 0x1F NOT DUP5 AND PUSH2 0xCF3 DUP7 PUSH2 0xAE0 JUMP JUMPDEST PUSH0 JUMPDEST DUP3 DUP2 LT ISZERO PUSH2 0xD1A JUMPI DUP5 DUP10 ADD MLOAD DUP3 SSTORE PUSH1 0x1 DUP3 ADD SWAP2 POP PUSH1 0x20 DUP6 ADD SWAP5 POP PUSH1 0x20 DUP2 ADD SWAP1 POP PUSH2 0xCF5 JUMP JUMPDEST DUP7 DUP4 LT ISZERO PUSH2 0xD37 JUMPI DUP5 DUP10 ADD MLOAD PUSH2 0xD33 PUSH1 0x1F DUP10 AND DUP3 PUSH2 0xC46 JUMP JUMPDEST DUP4 SSTORE POP JUMPDEST PUSH1 0x1 PUSH1 0x2 DUP9 MUL ADD DUP9 SSTORE POP POP POP JUMPDEST POP POP POP POP POP POP JUMP INVALID LOG2 PUSH5 0x6970667358 0x22 SLT KECCAK256 ADDRESS 0xB4 POP PUSH23 0xFEE13012720F6DB9AEC671BA63B0B5FBFC620AC821D87 DUP6 SHL 0xCC 0xF7 0xDC PUSH5 0x736F6C6343 STOP ADDMOD BYTE STOP CALLER "
				},
				"gasEstimates": {
					"creation": {
						"codeDepositCost": "691600",
						"executionCost": "726",
						"totalCost": "692326"
					},
					"external": {
						"addOption(string)": "infinite",
						"getOption(uint256)": "infinite",
						"getOptionCount()": "2506",
						"options(uint256)": "infinite",
						"vote(uint256)": "infinite",
						"voters(address)": "2877"
					}
				},
				"methodIdentifiers": {
					"addOption(string)": "edc550dc",
					"getOption(uint256)": "1ce5e9a6",
					"getOptionCount()": "a6bd5427",
					"options(uint256)": "409e2205",
					"vote(uint256)": "0121b93f",
					"voters(address)": "a3ec138d"
				}
			},
			"storageLayout": {
				"storage": [
					{
						"astId": 10,
						"contract": "contracts/Voting.sol/votedapp.sol:Voting",
						"label": "options",
						"offset": 0,
						"slot": "0",
						"type": "t_array(t_struct(Option)6_storage)dyn_storage"
					},
					{
						"astId": 14,
						"contract": "contracts/Voting.sol/votedapp.sol:Voting",
						"label": "voters",
						"offset": 0,
						"slot": "1",
						"type": "t_mapping(t_address,t_bool)"
					}
				],
				"types": {
					"t_address": {
						"encoding": "inplace",
						"label": "address",
						"numberOfBytes": "20"
					},
					"t_array(t_struct(Option)6_storage)dyn_storage": {
						"base": "t_struct(Option)6_storage",
						"encoding": "dynamic_array",
						"label": "struct Voting.Option[]",
						"numberOfBytes": "32"
					},
					"t_bool": {
						"encoding": "inplace",
						"label": "bool",
						"numberOfBytes": "1"
					},
					"t_mapping(t_address,t_bool)": {
						"encoding": "mapping",
						"key": "t_address",
						"label": "mapping(address => bool)",
						"numberOfBytes": "32",
						"value": "t_bool"
					},
					"t_string_storage": {
						"encoding": "bytes",
						"label": "string",
						"numberOfBytes": "32"
					},
					"t_struct(Option)6_storage": {
						"encoding": "inplace",
						"label": "struct Voting.Option",
						"members": [
							{
								"astId": 3,
								"contract": "contracts/Voting.sol/votedapp.sol:Voting",
								"label": "name",
								"offset": 0,
								"slot": "0",
								"type": "t_string_storage"
							},
							{
								"astId": 5,
								"contract": "contracts/Voting.sol/votedapp.sol:Voting",
								"label": "voteCount",
								"offset": 0,
								"slot": "1",
								"type": "t_uint256"
							}
						],
						"numberOfBytes": "64"
					},
					"t_uint256": {
						"encoding": "inplace",
						"label": "uint256",
						"numberOfBytes": "32"
					}
				}
			},
			"userdoc": {
				"kind": "user",
				"methods": {},
				"version": 1
			}
		}
	}
}